:020000040800F2
:100000000000012075FF0008DDF90008DFF9000895
:10001000E1F90008E3F90008E5F900080000000034
:10002000000000000000000000000000E7F90008E8
:10003000E9F9000800000000EBF90008EDF90008FC
:10004000BDFF0008BDFF0008BDFF0008BDFF0008A0
:10005000BDFF0008BDFF0008BDFF0008BDFF000890
:10006000BDFF0008BDFF0008BDFF0008F9F900084A
:1000700013FA000811FA000809FA00080BFA000840
:100080000DFA00080FFA0008BDFF0008BDFF0008C8
:10009000BDFF0008BDFF0008BDFF0008BDFF000850
:1000A000BDFF0008BDFF0008BDFF0008BDFF000840
:1000B00015FA0008BDFF00082DFA0008BDFF000872
:1000C000BDFF0008BDFF0008BDFF0008BDFF000820
:1000D000BDFF000845FA000855FA000865FA000857
:1000E00075FA0008BDFF0008BDFF0008BDFF00084D
:1000F000BDFF0008BDFF0008BDFF0008BDFF0008F0
:10010000BDFF0008BDFF0008BDFF0008BDFF0008DF
:10011000BDFF0008BDFF0008BDFF0008BDFF0008CF
:10012000BDFF0008BDFF0008BDFF0008BDFF0008BF
:1001300000000000000000000000000000000000BF
:1001400000000000000000000000000000000000AF
:10015000000000000000000000000000000000009F
:10016000000000000000000000000000000000008F
:10017000000000000000000000000000000000007F
:10018000000000000000000000000000000000006F
:10019000000000000000000000000000000000005F
:1001A000000000000000000000000000000000004F
:1001B000000000000000000000000000000000003F
:1001C000000000000000000000000000000000002F
:1001D000000000000000000000000000000000001F
:0401E0005FF8E0F1F3
:1001E80010B5054C237833B9044B13B10448AFF369
:1001F80000800123237010BDF806002000000000D5
:10020800981A010808B5034B1BB103490348AFF31B
:10021800008008BD00000000FC060020981A0108B4
:1002280081F0004102E000BF83F0004330B54FEA9F
:1002380041044FEA430594EA050F08BF90EA020F0C
:100248001FBF54EA000C55EA020C7FEA645C7FEA9F
:10025800655C00F0E2804FEA5454D4EB5555B8BFC2
:100268006D420CDD2C4480EA020281EA030382EA33
:10027800000083EA010180EA020281EA0303362DC5
:1002880088BF30BD11F0004F4FEA01314FF4801C98
:100298004CEA113102D0404261EB410113F0004FAA
:1002A8004FEA03334CEA133302D0524263EB430361
:1002B80094EA050F00F0A780A4F10104D5F1200EFF
:1002C8000DDB02FA0EFC22FA05F2801841F100015A
:1002D80003FA0EF2801843FA05F359410EE0A5F12E
:1002E80020050EF1200E012A03FA0EFC28BF4CF05F
:1002F800020C43FA05F3C01851EBE37101F0004515
:1003080007D54FF0000EDCF1000C7EEB00006EEB21
:100318000101B1F5801F1BD3B1F5001F0CD34908AB
:100328005FEA30004FEA3C0C04F101044FEA445202
:1003380012F5800F80F09A80BCF1004F08BF5FEA89
:10034800500C50F1000041EB045141EA050130BD69
:100358005FEA4C0C404141EB010111F4801FA4F10C
:100368000104E9D191F0000F04BF01460020B1FA61
:1003780081F308BF2033A3F10B03B3F120020CDA99
:100388000C3208DD02F1140CC2F10C0201FA0CF077
:1003980021FA02F10CE002F11402D8BFC2F1200CDC
:1003A80001FA02F120FA0CFCDCBF41EA0C01904092
:1003B800E41AA2BF01EB0451294330BD6FEA0404DB
:1003C8001F3C1CDA0C340EDC04F11404C4F12002C6
:1003D80020FA04F001FA02F340EA030021FA04F3D8
:1003E80045EA030130BDC4F10C04C4F1200220FA2F
:1003F80002F001FA04F340EA0300294630BD21FA6D
:1004080004F0294630BD94F0000F83F4801306BF32
:1004180081F480110134013D4EE77FEA645C18BF26
:100428007FEA655C29D094EA050F08BF90EA020FBD
:1004380005D054EA000C04BF1946104630BD91EAB5
:10044800030F1EBF0021002030BD5FEA545C05D1B8
:100458004000494128BF41F0004130BD14F58004F7
:100468003CBF01F5801130BD01F0004545F0FE416B
:1004780041F470014FF0000030BD7FEA645C1ABFA0
:10048800194610467FEA655C1CBF0B46024650EAD7
:10049800013406BF52EA033591EA030F41F4002103
:1004A80030BD00BF90F0000F04BF0021704730B589
:1004B8004FF4806404F132044FF000054FF000015E
:1004C80050E700BF90F0000F04BF0021704730B51F
:1004D8004FF4806404F1320410F0004548BF4042F4
:1004E8004FF000013EE700BF42004FEAE2014FEA49
:1004F80031014FEA02701FBF12F07F4393F07F4F24
:1005080081F06051704732F07F4208BF704793F026
:100518007F4F04BF41F40021704730B54FF4607439
:1005280001F0004521F000411CE700BF50EA01023C
:1005380008BF704730B54FF000050AE050EA0102E5
:1005480008BF704730B511F0004502D5404261EB55
:1005580041014FF4806404F132045FEA915C3FF496
:10056800D8AE4FF003025FEADC0C18BF03325FEA33
:10057800DC0C18BF033202EBDC02C2F1200300FAE4
:1005880003FC20FA02F001FA03FE40EA0E0021FA09
:1005980002F11444BDE600BF70B54FF0FF0C4CF4F7
:1005A800E06C1CEA11541DBF1CEA135594EA0C0FA9
:1005B80095EA0C0F00F0DEF82C4481EA030621EAE4
:1005C8004C5123EA4C5350EA013518BF52EA03351F
:1005D80041F4801143F4801338D0A0FB02CE4FF0D1
:1005E8000005E1FB02E506F00042E0FB03E54FF001
:1005F8000006E1FB03569CF0000F18BF4EF0010EF9
:10060800A4F1FF04B6F5007F64F5407404D25FEAF4
:100618004E0E6D4146EB060642EAC62141EA5551A7
:100628004FEAC52040EA5E504FEACE2EB4F1FD0CE9
:1006380088BFBCF5E06F1ED8BEF1004F08BF5FEA67
:10064800500E50F1000041EB045170BD06F0004619
:1006580046EA010140EA020081EA0301B4EB5C04C6
:10066800C2BFD4EB0C0541EA045170BD41F48011BE
:100678004FF0000E013C00F3AB8014F1360FDEBFE3
:10068800002001F0004170BDC4F10004203C35DABF
:100698000C341BDC04F11404C4F1200500FA05F342
:1006A80020FA04F001FA05F240EA020001F00042E3
:1006B80021F0004110EBD37021FA04F642EB060159
:1006C8005EEA430E08BF20EAD37070BDC4F10C0483
:1006D800C4F1200500FA04F320FA05F001FA04F247
:1006E80040EA020001F0004110EBD37041F1000133
:1006F8005EEA430E08BF20EAD37070BDC4F120053E
:1007080000FA05F24EEA020E20FA04F301FA05F2A5
:1007180043EA020321FA04F001F0004121FA04F24D
:1007280020EA020000EBD3705EEA430E08BF20EA1D
:10073800D37070BD94F0000F0FD101F00046400057
:1007480041EB010111F4801F08BF013CF7D041EAD9
:10075800060195F0000F18BF704703F000465200DD
:1007680043EB030313F4801F08BF013DF7D043EAAE
:100778000603704794EA0C0F0CEA135518BF95EA64
:100788000C0F0CD050EA410618BF52EA4306D1D1EB
:1007980081EA030101F000414FF0000070BD50EA0A
:1007A800410606BF1046194652EA430619D094EA94
:1007B8000C0F02D150EA013613D195EA0C0F05D17E
:1007C80052EA03361CBF104619460AD181EA0301D2
:1007D80001F0004141F0FE4141F470014FF000008A
:1007E80070BD41F0FE4141F4780170BD70B54FF025
:1007F800FF0C4CF4E06C1CEA11541DBF1CEA1355A5
:1008080094EA0C0F95EA0C0F00F0A7F8A4EB050486
:1008180081EA030E52EA03354FEA013100F088807D
:100828004FEA03334FF0805545EA131343EA126346
:100838004FEA022245EA111545EA10654FEA0026FB
:100848000EF000419D4208BF964244F1FD0404F5B4
:10085800407402D25B084FEA3202B61A65EB030510
:100868005B084FEA32024FF480104FF4002CB6EBCD
:10087800020E75EB030E22BFB61A754640EA0C004D
:100888005B084FEA3202B6EB020E75EB030E22BF8D
:10089800B61A754640EA5C005B084FEA3202B6EBCE
:1008A800020E75EB030E22BFB61A754640EA9C008D
:1008B8005B084FEA3202B6EB020E75EB030E22BF5D
:1008C800B61A754640EADC0055EA060E18D04FEA1B
:1008D800051545EA16754FEA06164FEAC30343EABB
:1008E80052734FEAC2025FEA1C1CC0D111F4801F88
:1008F8000BD141EA00014FF000004FF0004CB6E781
:1009080011F4801F04BF01430020B4F1FD0C88BF1F
:10091800BCF5E06F3FF6AFAEB5EB030C04BFB6EB2A
:10092800020C5FEA500C50F1000041EB045170BD1D
:100938000EF0004E4EEA113114EB5C04C2BFD4EB4A
:100948000C0541EA045170BD41F480114FF0000ECE
:10095800013C90E645EA060E8DE60CEA135594EA4A
:100968000C0F08BF95EA0C0F3FF43BAF94EA0C0F4D
:100978000AD150EA01347FF434AF95EA0C0F7FF4C2
:1009880025AF104619462CE795EA0C0F06D152EA16
:1009980003353FF4FDAE1046194622E750EA4106FA
:1009A80018BF52EA43067FF4C5AE50EA41047FF40B
:1009B8000DAF52EA43057FF4EBAE12E74FEA41026E
:1009C80012F5001215D211D56FF47873B3EB625299
:1009D80012D94FEAC12343F0004343EA505311F0C0
:1009E800004F23FA02F018BF404270474FF0000052
:1009F800704750EA013005D111F0004008BF6FF090
:100A0800004070474FF00000704700BF4FEA4102B6
:100A1800B2F1E04324BFB3F5001CDCF1FE5C0DD954
:100A280001F0004C4FEAC0024CEA5070B2F1004F9E
:100A380040EB830008BF20F00100704711F0804FA1
:100A480021D113F13872BCBF01F00040704741F466
:100A580080114FEA5252C2F11802C2F1200C10FA6A
:100A68000CF320FA02F018BF40F001004FEAC1234E
:100A78004FEAD32303FA0CFC40EA0C0023FA02F3F2
:100A88004FEA4303CCE77FEA625307D150EA0133C8
:100A98001EBF4FF0FE4040F44000704701F0004098
:100AA80040F0FE4040F40000704700BF80F0004076
:100AB80002E000BF81F0004142001FBF5FEA41032E
:100AC80092EA030F7FEA226C7FEA236C6AD04FEA2E
:100AD8001262D2EB1363C1BFD21841404840414073
:100AE800B8BF5B42192B88BF704710F0004F40F425
:100AF800000020F07F4018BF404211F0004F41F441
:100B0800000121F07F4118BF494292EA030F3FD00C
:100B1800A2F1010241FA03FC10EB0C00C3F120031F
:100B280001FA03F100F0004302D5494260EB4000AE
:100B3800B0F5000F13D3B0F1807F06D340084FEA19
:100B4800310102F10102FE2A51D2B1F1004F40EB0E
:100B5800C25008BF20F0010040EA03007047490076
:100B680040EB000010F4000FA2F10102EDD1B0FA41
:100B780080FCACF1080CB2EB0C0200FA0CF0AABF36
:100B880000EBC25052421843BCBFD04018437047D4
:100B980092F0000F81F4000106BF80F400000132DA
:100BA800013BB5E74FEA41037FEA226C18BF7FEAB1
:100BB800236C21D092EA030F04D092F0000F08BFF3
:100BC8000846704790EA010F1CBF0020704712F0DA
:100BD8007F4F04D1400028BF40F00040704712F119
:100BE80000723CBF00F50000704700F0004343F07E
:100BF800FE4040F4000070477FEA226216BF0846B4
:100C08007FEA23630146420206BF5FEA412390EA76
:100C1800010F40F4800070474FF0000304E000BF6C
:100C280010F0004348BF40425FEA000C08BF70471D
:100C380043F0964301464FF000001CE050EA0102E1
:100C480008BF70474FF000030AE000BF50EA0102F6
:100C580008BF704711F0004302D5404261EB4101E3
:100C68005FEA010C02BF84460146002043F0B64308
:100C780008BFA3F18053A3F50003BCFA8CF2083A2D
:100C8800A3EBC25310DB01FA02FC634400FA02FC36
:100C9800C2F12002BCF1004F20FA02F243EB02003D
:100CA80008BF20F00100704702F1200201FA02FC9F
:100CB800C2F1200250EA4C0021FA02F243EB020092
:100CC80008BF20EADC7070474FF0FF0C1CEAD052D6
:100CD8001EBF1CEAD15392EA0C0F93EA0C0F6FD097
:100CE8001A4480EA010C400218BF5FEA41211ED075
:100CF8004FF0006343EA501043EA5111A0FB013161
:100D08000CF00040B1F5000F3EBF490041EAD37135
:100D18005B0040EA010062F17F02FD2A1DD8B3F1B1
:100D2800004F40EBC25008BF20F00100704790F020
:100D3800000F0CF0004C08BF49024CEA502040EA72
:100D480051207F3AC2BFD2F1FF0340EAC250704738
:100D580040F400004FF00003013A5DDC12F1190F76
:100D6800DCBF00F000407047C2F10002410021FAE8
:100D780002F1C2F1200200FA02FC5FEA310040F100
:100D8800000053EA4C0308BF20EADC70704792F079
:100D9800000F00F0004C02BF400010F4000F013AB1
:100DA800F9D040EA0C0093F0000F01F0004C02BFAC
:100DB800490011F4000F013BF9D041EA0C018FE71B
:100DC8000CEAD15392EA0C0F18BF93EA0C0F0AD021
:100DD80030F0004C18BF31F0004CD8D180EA010047
:100DE80000F00040704790F0000F17BF90F0004FE0
:100DF800084691F0000F91F0004F14D092EA0C0FC2
:100E080001D142020FD193EA0C0F03D14B0218BF54
:100E1800084608D180EA010000F0004040F0FE409A
:100E280040F40000704740F0FE4040F44000704736
:100E38004FF0FF0C1CEAD0521EBF1CEAD15392EAB5
:100E48000C0F93EA0C0F69D0A2EB030280EA010CA5
:100E580049024FEA402037D04FF0805343EA11113E
:100E680043EA10130CF000408B4238BF5B0042F19C
:100E78007D024FF4000C8B4224BF5B1A40EA0C0041
:100E8800B3EB510F24BFA3EB510340EA5C00B3EB73
:100E9800910F24BFA3EB910340EA9C00B3EBD10F61
:100EA80024BFA3EBD10340EADC001B0118BF5FEAB3
:100EB8001C1CE0D1FD2A3FF650AF8B4240EBC250DC
:100EC80008BF20F0010070470CF0004C4CEA50209D
:100ED8007F32C2BFD2F1FF0340EAC250704740F4EC
:100EE80000004FF00003013A37E792F0000F00F0DE
:100EF800004C02BF400010F4000F013AF9D040EA5C
:100F08000C0093F0000F01F0004C02BF490011F4EF
:100F1800000F013BF9D041EA0C0195E70CEAD153E7
:100F280092EA0C0F08D142027FF47DAF93EA0C0FCE
:100F38007FF470AF084676E793EA0C0F04D14B02B2
:100F48003FF44CAF08466EE730F0004C18BF31F064
:100F5800004CCAD130F000427FF45CAF31F000435E
:100F68007FF43CAF5FE700BF4FF0FF3C06E000BFF7
:100F78004FF0010C02E000BF4FF0010C4DF804CD1A
:100F88004FEA40024FEA41037FEA226C18BF7FEA2A
:100F9800236C11D001B052EA530C18BF90EA010F2C
:100FA80058BFB2EB030088BFC81738BF6FEAE170BB
:100FB80018BF40F0010070477FEA226C02D15FEA57
:100FC800402C05D17FEA236CE4D15FEA412CE1D0C3
:100FD8005DF8040B704700BF844608466146FFE78A
:100FE8000FB5FFF7C9FF002848BF10F1000F0FBD6C
:100FF8004DF808EDFFF7F4FF0CBF012000205DF865
:1010080008FB00BF4DF808EDFFF7EAFF34BF0120E9
:1010180000205DF808FB00BF4DF808EDFFF7E0FF82
:1010280094BF012000205DF808FB00BF4DF808EDD3
:10103800FFF7D2FF94BF012000205DF808FB00BF36
:101048004DF808EDFFF7C8FF34BF012000205DF818
:1010580008FB00BF4FEA4002B2F1FE4F0FD34FF03A
:101068009E03B3EB12620DD94FEA002343F000430D
:1010780010F0004F23FA02F018BF404270474FF0BB
:101088000000704712F1610F01D1420205D110F042
:10109800004008BF6FF0004070474FF000007047F5
:1010A80042000ED2B2F1FE4F0BD34FF09E03B3EBCA
:1010B800126209D44FEA002343F0004323FA02F0F6
:1010C80070474FF00000704712F1610F01D14202E2
:1010D80002D14FF0FF3070474FF00000704700BF5B
:1010E800034613F8012B002AFBD1181A0138704760
:1010F8004FF0FF3C06E000BF4FF0010C02E000BFDC
:101108004FF0010C4DF804CD4FEA410C7FEA6C5CBE
:101118004FEA430C18BF7FEA6C5C1BD001B050EA61
:10112800410C0CBF52EA430C91EA030F02BF90EA4C
:10113800020F0020704710F1000F91EA030F58BF0B
:10114800994208BF90422CBFD8176FEAE37040F06D
:10115800010070474FEA410C7FEA6C5C02D150EA0B
:10116800013C07D14FEA430C7FEA6C5CD6D152EAC6
:10117800033CD3D05DF8040B704700BF844610468B
:1011880062468C461946634600E000BF01B5FFF78A
:10119800B7FF002848BF10F1000F01BD4DF808ED5A
:1011A800FFF7F4FF0CBF012000205DF808FB00BF2B
:1011B8004DF808EDFFF7EAFF34BF012000205DF885
:1011C80008FB00BF4DF808EDFFF7E0FF94BF0120D2
:1011D80000205DF808FB00BF4DF808EDFFF7CEFFD3
:1011E80094BF012000205DF808FB00BF4DF808ED12
:1011F800FFF7C4FF34BF012000205DF808FB00BFE3
:101208004FEA410C7FEA6C5C02D150EA013C0AD1FA
:101218004FEA430C7FEA6C5C02D152EA033C02D1EC
:101228004FF0000070474FF00100704710B50446BA
:10123800074B1868074BA3FB0030800900F080FBC0
:10124800002221464FF0FF3000F02EFB002010BD99
:1012580024050020D34D621008B5074A136843F0EF
:1012680010031360032000F00DFB0020FFF7DEFFE2
:101278000EF066FB002008BD00200240024A1368F9
:1012880001331360704700BF2C080020014B186819
:10129800704700BF2C08002030B583B00190FFF7DD
:1012A800F5FF0546019CB4F1FF3F00D00134FFF77C
:1012B800EDFF401BA042FAD303B030BD704708B51C
:1012C800436A9A6A12F0500F03D01B6A1B6B984747
:1012D80008BD9A6A42F400729A621A68926802F427
:1012E8006022B2F5602F03D01846FFF7E7FFEFE75B
:1012F800DA68002AF8D19A6A22F480729A629A6AA5
:1013080012F4805FF0D19A6A42F001029A62EBE728
:10131800704708B5406AFFF7FBFF08BD704708B57E
:10132800406A836A43F040038362C36A43F004035C
:10133800C362FFF7F3FF08BD30B482B00023019306
:1013480090F82430012B00F08B800246012380F8AE
:1013580024304B68062B29D80568686B03EB830398
:10136800053B1F249C4020EA04000C6804FA03F3A0
:1013780003436B630B68092B38D91568E86803EBDE
:1013880043031E3B07249C4020EA04008C6804FAAF
:1013980003F30343EB600B68103B012B34D90020A7
:1013A800002382F8243002B030BC70470C2B0ED8D2
:1013B8000568286B03EB8303233B1F249C4020EA2A
:1013C80004000C6804FA03F303432B63D2E70568AF
:1013D800E86A03EB8303413B1F249C4020EA040096
:1013E8000C6804FA03F30343EB62C3E71568286942
:1013F80003EB430307249C4020EA04008C6804FAAA
:1014080003F303432B61C6E713681648834205D0EC
:10141800936A43F0200393620120C1E7986810F4AF
:10142800000F1BD1986840F4000098600B68102BDF
:1014380001D00020B4E70C4B1B680C49A1FB031337
:101448009B0C03EB83035900019102E0019B013BD4
:101458000193019B002BF9D10020A1E700209FE711
:101468000220A0E7002401402405002083DE1B435E
:1014780030B583B00023019303689A6812F0010F16
:101488002ED19A6842F001029A60174B1B68174ADE
:10149800A2FB03239B0C019302E0019B013B0193F8
:1014A800019B002BF9D10446FFF7F0FE054623689F
:1014B8009B6813F0010F11D1FFF7E8FE401B0228CB
:1014C800F5D9A36A43F01003A362E36A43F001036A
:1014D800E362002384F82430012002E0002000E0C9
:1014E800002003B030BD00BF2405002083DE1B436D
:1014F800F8B50468454DAC425BD0454B9C4258D08A
:1015080090F82440012C7ED016460D46044601234F
:1015180080F82430FFF7ACFF074600286ED1A36A95
:1015280023F4706323F0010343F48073A3622268F9
:10153800374B9A4244D0A36A23F48013A3625368BA
:1015480013F4806F05D0A36A23F4405343F4805307
:10155800A362A36A13F4805F48D0E36A23F006030A
:10156800E362002384F82430236A2A4A9A62236AB1
:10157800294ADA62236A294A1A6323686FF0020249
:101588001A602268936843F4807393602168334635
:101598002A464C31206A00F065FA2268936803F401
:1015A8006023B3F5602F24D0936843F480139360CD
:1015B80027E0164B5B6813F4702FA1D0012720E0B9
:1015C800A3F580635B6813F4702FB4D0A36A43F467
:1015D8008013A3620D4B5B6813F4806FB9D0A36AC4
:1015E80023F4405343F48053A362B2E70023E36239
:1015F800B7E7936843F4A003936002E0002384F8FC
:1016080024303846F8BD0227FBE700BF002401401C
:1016180000280140C71200081B1300082713000800
:1016280038B503689A6812F0010F01D1002038BD5F
:1016380004469A6822F001029A60FFF727FE0546E1
:1016480023689B6813F0010F0ED0FFF71FFE401BA5
:101658000228F5D9A36A43F01003A362E36A43F0B2
:101668000103E3620120E2E70020E0E7002800F040
:101678008A8070B50446836A002B36D02046FFF76F
:10168800CFFFA36A13F0100377D1002875D1A26A9F
:1016980022F4885222F0020242F00202A262626838
:1016A80025683A498D4226D0E1690A43E66842EA4C
:1016B8004602A168B1F5807F27D0012922D061694F
:1016C800012925D0696821F469410B436B602168C1
:1016D8008D682F4B2B4013438B60A368B3F5807F35
:1016E80027D0012B25D0002126E0C36280F82430C2
:1016F80001F0BAFFC2E7E169B1F5402FD5D14FF447
:101708000021D2E74FF48073D9E74FF48073D6E70E
:1017180036B9A169013943EA413343F40063D1E79B
:10172800A16A41F02001A162E16A41F00101E16290
:10173800C8E72369013B19052568EB6A23F47003A0
:101748000B43EB6223689968124B0B409A420BD00B
:10175800A36A23F0120343F01003A362E36A43F081
:101768000103E36201200DE00023E362A36A23F092
:10177800030343F00103A36204E0A36A43F01003E8
:10178800A362012070BD0120704700BF003C0140EA
:10179800FDF7E1FFFE0E1FFF70B582B00023019335
:1017A80090F82430012B68D00446012380F82430B7
:1017B800FFF736FF054628B1002384F82430284671
:1017C80002B070BDA36A23F4885323F0020343F0E8
:1017D8000203A3622A4B1E68022000F0C7FFB6FB73
:1017E800F0F04000019002E0019B013B0193019B56
:1017F800002BF9D12046FFF73BFE2268936843F09F
:1018080008039360FFF742FD064623689A6812F0C2
:10181800080F0FD0FFF73AFD801B0A28F5D9A36AF5
:1018280023F0120343F01003A362002384F824304A
:101838000125C4E79A6842F004029A60FFF726FD82
:10184800064623689B6813F0040F0FD0FFF71EFDB0
:10185800801B0A28F5D9A36A23F0120343F010036A
:10186800A362002384F824300125A8E7A36A23F0A3
:10187800030343F00103A3629EE702259FE700BF2D
:1018880024050020074AD36823F4E0631B041B0CDB
:10189800000200F4E060184340F0BF6040F40030FC
:1018A800D060704700ED00E030B4174BDB68C3F33D
:1018B8000223C3F10704042C28BF04241D1D062D90
:1018C80018D9033B4FF0FF3505FA04F421EA040167
:1018D800994005FA03F322EA0303194300280BDBB6
:1018E8000901C9B200F1604000F5614080F80013B9
:1018F80030BC70470023E5E700F00F000901C9B2CA
:10190800024B1954F4E700BF00ED00E014ED00E0CD
:1019180000F01F02400901239340024A42F8203098
:10192800704700BF00E100E000F01F0240090123FA
:1019380093402030014A42F82030704700E100E02F
:101948000138B0F1807F0AD2064B5860064AF02170
:1019580082F823100020986007221A60704701203F
:10196800704700BF10E000E000ED00E0042805D05B
:10197800054A136823F0040313607047024A13688A
:1019880043F004031360704710E000E0704708B5A7
:10199800FFF7FCFF08BD70B4066CC56B0124B440AA
:1019A8006C60046863604368102B05D00368996015
:1019B8000368DA6070BC704703689A600368D9608E
:1019C800F8E7000000283FD010B4034601681F4A1A
:1019D80091422ED81E4A0A441E49A1FB021212093E
:1019E800920002641C4AC263022283F8212018680C
:1019F800016821F47F5121F030015A689C68224324
:101A0800DC6822431C6922435C6922439C692243A7
:101A1800DC6922430A43026000209862D862186396
:101A280058639863012283F8212083F8200010BCB2
:101A380070470A4A0A440749A1FB02121209920098
:101A48000264074AC263CFE70120704707040240D7
:101A5800F8FFFDBFCDCCCCCC00000240F8FBFDBFA9
:101A68000004024038B590F82040012C32D00124FF
:101A780080F8204090F82140012C04D0002380F801
:101A88002030022038BD0446022084F821000020BE
:101A9800A0632568286820F0010028602046FFF729
:101AA8007AFFE36A5BB12268136843F00E031360A0
:101AB8002268136843F0010313600020E2E72268FC
:101AC800136823F0040313602268136843F00A03C1
:101AD8001360EDE70220D5E7034601680A6822F0A3
:101AE8000E020A6001680A6822F001020A60026CAC
:101AF800C06B012101FA02F2426083F82110002034
:101B080083F820007047000038B5C36B1A68046872
:101B18002568016C04238B40134200F09B8015F06C
:101B2800040F00F09780236813F0200F03D1236877
:101B380023F0040323600368AA4A934246D9783AFB
:101B4800934224D01432934228D01432934227D09F
:101B58001432934227D01432934227D0143293423E
:101B680027D01432934227D002F56272934226D0CE
:101B78001432934225D01432934224D01432934223
:101B880002D04FF4802203E04FF4804200E00422A8
:101B9800954B5A60C36A03B1984738BD4022F7E7AE
:101BA8004FF48062F4E74FF48042F1E74FF480226B
:101BB800EEE74FF48002EBE74FF08062E8E704229B
:101BC800E6E74022E4E74FF48062E1E7874A934280
:101BD80024D01432934225D01432934224D01432A4
:101BE800934224D01432934224D01432934224D006
:101BF8001432934224D002F56272934223D01432F5
:101C0800934222D01432934221D01432934202D00C
:101C18004FF4802203E04FF4804200E00422744B2A
:101C28005A60B7E74022FAE74FF48062F7E74FF4CB
:101C38008042F4E74FF48022F1E74FF48002EEE7A8
:101C48004FF08062EBE70422E9E74022E7E74FF430
:101C58008062E4E702238B40134200F0A38015F072
:101C6800020F00F09F80236813F0200F06D123682D
:101C780023F00A032360012380F821300368594ABE
:101C880093424BD9783A934224D0143293422DD0C0
:101C9800143293422CD0143293422CD014329342F3
:101CA8002CD0143293422CD0143293422CD002F50B
:101CB800627293422BD0143293422AD01432934248
:101CC80029D01432934202D04FF4003203E04FF48B
:101CD800005200E00222444B5A60002380F8203072
:101CE800836A002B3FF459AF984756E72022F2E762
:101CF8004FF40072EFE74FF40052ECE74FF4003274
:101D0800E9E74FF40012E6E74FF00072E3E702223A
:101D1800E1E72022DFE74FF40072DCE7334A934221
:101D280024D01432934225D01432934224D0143252
:101D3800934224D01432934224D01432934224D0B4
:101D48001432934224D002F56272934223D01432A3
:101D5800934222D01432934221D01432934202D0BB
:101D68004FF4003203E04FF4005200E00222204B0F
:101D78005A60B2E72022FAE74FF40072F7E74FF40F
:101D88000052F4E74FF40032F1E74FF40012EEE7A7
:101D98004FF00072EBE70222E9E72022E7E74FF471
:101DA8000072E4E7082303FA01F111423FF4F5AEAB
:101DB80015F0080F3FF4F1AE236823F00E032360FB
:101DC800026CC16B012303FA02F24A60836380F854
:101DD8002130002380F82030036B002B3FF4DDAE68
:101DE8009847DAE6800002400004024008000240FA
:101DF80000000240F0B482B000263546ABE0002C6B
:101E080063D0012C00D1CE68FF2B72D88446FF2BFB
:101E180072D8AC00DCF800200F27A74022EA07029E
:101E280006FA04F42243CCF800204A6812F0805FD6
:101E380000F09080654A946944F0010494619269C5
:101E480002F001020192019AAC08A71C604A52F8FC
:101E580027C005F0030297000F22BA402CEA020CB3
:101E68005C4A90424ED002F58062904200F08B802E
:101E780002F58062904200F0888002F5806290420C
:101E880000F0858002F58062904200F0828002F5C1
:101E98008062904234D0062235E04F4FBC4214D0C5
:101EA8000BD94E4FBC4210D007F58037BC420CD03E
:101EB800A7F58017BC42A7D107E0A7F58017BC4259
:101EC80003D007F58037BC429ED18C687CB1012CC9
:101ED80008D04261082697E7CE68083694E7CE68AE
:101EE8000C3691E7026108268EE700268CE7042667
:101EF8008AE700F1040C8AE7A5F10804A40089E741
:101F0800052200E00022BA4042EA0C020234304FB7
:101F180047F824204A6812F4803F3CD0304C2268AD
:101F28001A4322604A6812F4003F3AD02C4C626887
:101F38001A4362604A6812F4801F38D0284CA2689D
:101F48001A43A2604A6812F4001F36D0244CE26893
:101F58001343E36001350F2D35D80122AA400B68E1
:101F680013409A42F6D14C68122CB8D095D8022C5E
:101F7800B2D07FF644AF032CB7D0112C7FF444AF16
:101F8800CE68043640E70122BDE70222BBE7032200
:101F9800B9E70422B7E7124C226822EA030222605A
:101FA800C0E70F4C626822EA03026260C2E70C4C89
:101FB800A26822EA0302A260C4E7094CE26822EAA6
:101FC8000303E360C6E702B0F0BC704700100240AC
:101FD80000000140000801400000211000003110FD
:101FE800000401408368194201D100207047012094
:101FF800704712B909040161704701617047000018
:1020080008B5054B5B69034200D108BD024B586116
:1020180006F0F8F8F9E700BF0004014082B0084B69
:102028001B68084AA2FB03235B0A00FB03F001902C
:1020380000BF019B5A1E0192002BF9D102B07047D4
:1020480024050020D34D621070B582B004460368A1
:1020580013F0010F2CD0AB4B5B6803F00C03042B7F
:102068001DD0A84B5B6803F00C03082B12D06368E3
:10207800B3F5803F41D0002B55D103F1804303F5E0
:1020880004331A6822F480321A601A6822F4802213
:102098001A6037E09B4B5B6813F4803FE7D0994B9D
:1020A8001B6813F4003F03D06368002B00F0AE8177
:1020B800236813F0020F76D0924B5B6813F00C0F75
:1020C8005FD0904B5B6803F00C03082B54D0236956
:1020D800002B00F08A808C4B01221A60FFF7D6F89B
:1020E8000546884B1B6813F0020F75D1FFF7CEF831
:1020F800401B0228F5D903208BE1824A136843F478
:1021080080331360636843B3FFF7C0F805467D4B1F
:102118001B6813F4003FCBD1FFF7B8F8401B6428C5
:10212800F5D9032075E1B3F5A02F09D0754B1A68CE
:1021380022F480321A601A6822F480221A60E1E7D9
:1021480003F18043A3F53C331A6842F480221A60F5
:102158001A6842F480321A60D4E7FFF797F8054608
:10216800684B1B6813F4003FA2D0FFF78FF8401BA1
:102178006428F5D903204CE1624B5B6813F4803F77
:10218800A5D1604B1B6813F0020F04D02369012B03
:1021980001D001203DE15B4A136823F0F80361692F
:1021A80043EAC1031360236813F0080F32D0A36910
:1021B800002B5BD0554B01221A60FFF767F80546E4
:1021C800504B5B6A13F0020F21D1FFF75FF8401BF9
:1021D8000228F5D903201CE14A4A136823F0F803C2
:1021E800616943EAC1031360DDE7474B00221A60C7
:1021F800FFF74CF80546434B1B6813F0020FD2D08B
:10220800FFF744F8401B0228F5D9032001E101201B
:10221800FFF704FF236813F0040F00F09780394B91
:10222800DB6913F0805F33D1364BDA6942F08052B4
:10223800DA61DB6903F080530193019B0125344B7C
:102248001B6813F4807F25D0E368012B36D0002B60
:102258004CD103F1804303F504331A6A22F00102DA
:102268001A621A6A22F004021A622CE0274B002232
:102278001A60FFF70BF80546224B5B6A13F0020F52
:10228800C8D0FFF703F8401B0228F5D90320C0E0A7
:102298000025D4E71E4A136843F480731360FEF7E1
:1022A800F5FF06461A4B1B6813F4807FCCD1FEF766
:1022B800EDFF801B6428F5D90320AAE0114A136AB0
:1022C80043F001031362E36873B3FEF7DFFF0646CA
:1022D8000C4B1B6A13F0020F37D1FEF7D7FF801B98
:1022E80041F288339842F3D9032092E0052B11D0AC
:1022F800044B1A6A22F001021A621A6A22F00402D6
:102308001A62E0E7001002400000424280044242A4
:1023180000700040414B1A6A42F004021A621A6ABD
:1023280042F001021A62CEE7FEF7B0FF06463B4BC9
:102338001B6A13F0020F08D0FEF7A8FF801B41F2BA
:1023480088339842F3D9032063E0E5B9E369002BA9
:102358005ED0324A526802F00C02082A5BD0022B87
:1023680017D02F4B00221A60FEF790FF04462B4B24
:102378001B6813F0007F47D0FEF788FF001B022878
:10238800F5D9032045E0254AD36923F08053D3616A
:10239800DCE7234B00221A60FEF778FF05461F4B47
:1023A8001B6813F0007F06D0FEF770FF401B022861
:1023B800F5D903202DE0236AB3F5803F1AD01749D9
:1023C8004B6823F47413226A606A024313434B6018
:1023D800134B01221A60FEF759FF04460F4B1B6886
:1023E80013F0007F0ED1FEF751FF001B0228F5D92C
:1023F80003200EE0094A536823F40033A1680B4315
:102408005360DCE7002004E0002002E0012000E047
:10241800002002B070BD0120FBE700BF00100240A1
:102428006000424210B487B0164C94E80F000DF1DA
:10243800180C0CE90F00238AADF80430124B5B68C6
:1024480003F00C02082A1AD1C3F38342624412F83B
:10245800100C13F4803F05D10C4B03FB00F007B0C0
:1024680010BC7047084B5B68C3F34043634413F8E0
:10247800142C074BB3FBF2F300FB03F0EFE704481F
:10248800EDE700BFB01A01080010024000093D0046
:1024980000127A00594B1B6803F007038B420CD2D9
:1024A800564A136823F007030B431360136803F0BD
:1024B80007038B4201D00120704770B5036813F001
:1024C800020F06D04E4A536823F0F0038468234372
:1024D80053600C460546036813F0010F52D0436859
:1024E800012B23D0022B28D0454A126812F0020F84
:1024F80000F0828042494A6822F0030213434B608D
:10250800FEF7C4FE06466B68012B1DD0022B2AD0AD
:102518003B4B5B6813F00C0F34D0FEF7B7FE801B03
:1025280041F288339842F3D9032064E0344A1268B0
:1025380012F4003FDED101205DE0314A126812F04A
:10254800007FD7D1012056E02D4B5B6803F00C03C8
:10255800042B17D0FEF79AFE801B41F2883398426D
:10256800F2D9032047E0264B5B6803F00C03082BE5
:1025780008D0FEF78BFE801B41F288339842F2D9CF
:10258800032038E01D4B1B6803F00703A3420CD956
:102598001A4A136823F0070323431360136803F0F0
:1025A8000703A34201D0012025E02B6813F0040F94
:1025B80006D0134A536823F4E063E9680B43536079
:1025C8002B6813F0080F07D00D4A536823F46053A3
:1025D800296943EAC1035360FFF724FF084B5B688E
:1025E800C3F30313074AD35CD840074B1860002095
:1025F800FEF71CFE002070BD0120FCE70020024011
:1026080000100240E81D010824050020014B18684D
:10261800704700BF2405002008B5FFF7F7FF044BFB
:102628005B68C3F30223034AD35CD84008BD00BFEC
:1026380000100240F81D010808B5FFF7E7FF044B3A
:102648005B68C3F3C223034AD35CD84008BD00BF0C
:1026580000100240F81D010870B582B004460368F6
:1026680013F0010F34D03E4BDB6913F0805F48D183
:102678003B4BDA6942F08052DA61DB6903F0805340
:102688000193019B0125374B1B6813F4807F3AD0D7
:10269800334B1B6A13F4407311D0626802F4407222
:1026A8009A420CD02E4A136A23F440702E49012610
:1026B8000E6000260E60106213F0010F37D1284A11
:1026C800136A23F4407361680B431362002D3FD1F2
:1026D800236813F0020F06D0214A536823F44043BD
:1026E800A1680B435360236813F0100F35D01C4AC0
:1026F800536823F4800361690B435360002002B0E0
:1027080070BD0025BFE7174A136843F48073136050
:10271800FEF7BCFD0646134B1B6813F4807FB7D148
:10272800FEF7B4FD801B6428F5D90320E7E7FEF720
:10273800ADFD06460A4B1B6A13F0020FBFD1FEF728
:10274800A5FD801B41F288339842F3D90320D6E7D0
:10275800D36923F08053D361BAE70020CFE700BFE5
:1027680000100240007000404004424230B587B07B
:1027780005463F4C94E80F000DF1180C0CE90F00CA
:10278800238AADF80430681E0F2866D8DFE800F009
:10279800395A6532656565366565656565656508D7
:1027A800344B5A681B6813F0807F58D0C2F38343B8
:1027B80006A90B4413F8100C12F4803F16D02D4BC9
:1027C8005B68C3F340430B4413F8142C2A4BB3FB48
:1027D800F2F300FB03F0274B5B6813F4800F0BD177
:1027E8004000264BA3FB0030400805E0244B03FBC8
:1027F80000F0F0E7FFF716FE07B030BDFFF712FE56
:10280800FAE71C4B1B6A40F202321A40B2F5817F8C
:1028180027D003F44073B3F5007F04D0B3F5407FAD
:1028280009D00020E8E7134A526A12F0020FF5D0E7
:1028380049F64040E0E70F4B1B6813F4003F13D103
:102848000020D9E7FFF7F8FE0A4B5B68C3F3813332
:1028580001335B00B0FBF3F0CEE70020CCE70020AB
:10286800CAE74FF40040C7E74FF22440C4E700BF6F
:10287800C41A01080010024000127A00ABAAAAAAE2
:1028880000093D00F8B505460F4616461C463BE0D4
:102898002CB1FEF7FBFC069BC01AA04234D32A6871
:1028A800536823F0E00353606B68B3F5827F0BD065
:1028B800AB6AB3F5005F14D0012385F851300023CB
:1028C80085F85030032027E0AB68B3F5004F02D0FD
:1028D800B3F5806FECD12A68136823F040031360C6
:1028E800E6E72A68136823F400531B041B0C1360E3
:1028F8002A68136843F400531360DDE70123B342E9
:1029080009D0B4F1FF3FC3D12B689B6837EA0303B2
:10291800F4D00023F3E70020F8BD10B582B00446D8
:1029280000920B4600228021FFF7ACFF034610B946
:10293800184602B010BD636D43F02003636503239E
:10294800F6E72DE9F04385B099460C9D90F8503094
:10295800012B00F0108104460F461646012380F82B
:102968005030FEF793FC804694F85130DBB2626831
:10297800012B15D0B2F5827F0AD00223012284F8F8
:102988005120002284F85020184605B0BDE8F08395
:10299800A268002A40F0E780042B01D00223EDE76B
:1029A800002F00F0E280002E00F0E180B9F1000F66
:1029B80000F0DF8094F85130DBB2012B2BD00023DC
:1029C8006365A663A4F83E90A4F83C902763A4F836
:1029D8003690A4F834902364636423681A6812F06C
:1029E800400F03D11A6842F040021A60E368B3F559
:1029F800006F14D063681BB1E38E9BB2012B07D123
:102A0800236817F8012B1A73E38E013B9BB2E38608
:102A18004FF0010961E0052384F85130CFE763687E
:102A28001BB1E38E9BB2012B07D1236837F8022B29
:102A3800DA60E38E013B9BB2E3864FF0010913E0B5
:102A4800E38F9BB26BB123689A6812F0010F08D02C
:102A5800DB6826F8023BE38F013B9BB2E3874FF02C
:102A68000109B5F1FF3F1CD1E38E9BB21BB9E38F7F
:102A78009BB2002B55D0B9F1000FE1D0E38E9BB289
:102A8800002BDDD023689A6812F0020FD8D037F8EF
:102A9800022BDA60E38E013B9BB2E3864FF000091C
:102AA800CEE7FEF7F3FBA0EB0800A842DCD3032334
:102AB80064E7E38F9BB26BB123689A6812F0010F49
:102AC80008D0DB683370E38F013B9BB2E3870136A4
:102AD8004FF00109B5F1FF3F1BD1E38E9BB213B94B
:102AE800E38F9BB2EBB1B9F1000FE2D0E38E9BB25A
:102AF800002BDED023689A6812F0020FD9D03A78FA
:102B08001A73E38E013B9BB2E38601374FF000094D
:102B1800CFE7FEF7BBFBA0EB0800A842DDD30323F9
:102B28002CE7CDF800802B46012202212046FFF732
:102B3800A9FE08B1032321E7424629462046FFF7AC
:102B4800ECFE034618B120236365012316E7A2684B
:102B5800002A7FF413AF03922268D1680391926828
:102B68000392039A0AE7022308E7012306E70123F1
:102B780004E7012302E7022306E700283CD010B54A
:102B880004460023836290F85130002B31D0022391
:102B980084F851302268136823F040031360636897
:102BA800A2681343E268134322691343626913431B
:102BB800A26902F400721343E2691343226A1343C1
:102BC800A16A22680B431360638B03F00403616AF4
:102BD80022680B4353602368E26A1A612268D3694A
:102BE80023F40063D36100206065012384F8513029
:102BF80010BD0CF04FFECAE70120704710B4036AFD
:102C0800046A24F001040462846924F0F00444EAAC
:102C1800021223F00A030B438261036210BC70475F
:102C280010B4036A23F0100303628469036A24F46E
:102C3800704444EA023223F0A00343EA011382619C
:102C4800036210BC7047836823F0700341F00701EA
:102C580019438160704710B4846824F47F4442EAC1
:102C680003230B432343836010BC70470268D36877
:102C780043F00103D3600268136843F00103136053
:102C88000020704790F83C30012B7DD010B50446E9
:102C9800012380F83C30022380F83D3002689368B5
:102CA80023F47F4323F0770393600B68402B57D0BE
:102CB80010D9702B3ED01FD8502B47D0602B32D163
:102CC800CA6849680068FFF7ABFF60212068FFF712
:102CD800BAFF28E0102B4DD008D9202B4FD0302B2D
:102CE80021D130210068FFF7AEFF1CE0DBB90021DD
:102CF8000068FFF7A8FF16E0B3F5805F0ED0B3F5C4
:102D0800005F10D1CB684A6889680068FFF7A3FFA5
:102D18002268936843F48043936004E002689368F0
:102D280023F007039360012384F83D30002084F8E2
:102D38003C0010BDCB684A6889680068FFF78BFFC4
:102D48002268936843F077039360ECE7CA684968A0
:102D58000068FFF753FF50212068FFF774FFE2E790
:102D6800CA6849680068FFF749FF40212068FFF7F3
:102D78006AFFD8E710210068FFF765FFD3E7202135
:102D88000068FFF760FFCEE7022070477047704782
:102D98007047704710B5044603681A6912F0020FAD
:102DA80011D0DA6812F0020F0DD06FF002021A612A
:102DB8000123037703689B6913F0030F70D0FFF7B3
:102DC800E6FF0023237723681A6912F0040F12D054
:102DD800DA6812F0040F0ED06FF004021A610223B1
:102DE800237723689B6913F4407F5FD02046FFF761
:102DF800CEFF0023237723681A6912F0080F12D038
:102E0800DA6812F0080F0ED06FF008021A61042376
:102E180023772368DB6913F0030F4ED02046FFF7B2
:102E2800B6FF0023237723681A6912F0100F12D017
:102E3800DA6812F0100F0ED06FF010021A61082332
:102E480023772368DB6913F4407F3DD02046FFF7E2
:102E58009EFF0023237723681A6912F0010F03D01D
:102E6800DA6812F0010F36D123681A6912F0800F60
:102E780003D0DA6812F0800F34D123681A6912F08F
:102E8800400F03D0DA6812F0400F32D123681A6974
:102E980012F0200F03D0DA6812F0200F30D110BDE5
:102EA800FFF774FF2046FFF773FF8AE72046FFF716
:102EB8006DFF2046FFF76CFF9BE72046FFF766FF94
:102EC8002046FFF765FFACE72046FFF75FFF204687
:102ED800FFF75EFFBDE76FF001021A6120460CF0B4
:102EE8002FF9C1E76FF080021A61204600F09FF8C1
:102EF800C3E76FF040021A612046FFF74AFFC5E7B3
:102F08006FF020021A61204600F090F8C7E7000031
:102F18000368244A904212D002F5006290420ED013
:102F2800B0F1804F0BD0A2F59832904207D002F54D
:102F38008062904203D002F58062904203D123F070
:102F480070034A681343174A904212D002F5006290
:102F580090420ED0B0F1804F0BD0A2F5983290423B
:102F680007D002F58062904203D002F58062904259
:102F780003D123F44073CA68134323F080034A69DA
:102F8800134303608B68C3620B688362054B9842E6
:102F980003D003F50063984201D10B690363012351
:102FA80043617047002C0140A8B110B5044690F861
:102FB8003D305BB1022384F83D30211D2068FFF7C6
:102FC800A7FF012384F83D30002010BD80F83C3075
:102FD8000CF0F2FDEEE70120704790F83C30012B31
:102FE80022D030B4012280F83C20022380F83D3002
:102FF8000468636823F070036360046863680D689D
:103008002B4363600468A36823F08003A36004680B
:10301800A36849680B43A36080F83D20002380F82B
:103028003C30184630BC70470220704770477047E4
:103038000268D36823F0C003D360202380F83930B6
:1030480070470268D36823F49073D36002685369A9
:1030580023F001035361202380F83A3070470000C1
:103068002DE9F84305460268136923F44053C16803
:103078000B43136183680269134342691343016870
:10308800CA6822F4B05222F00C021343CB600268E3
:10309800536923F4407381690B4353610268594BA8
:1030A8009A4257D0FFF7B8FA00EB800000EB800097
:1030B8006C68A400B0FBF4F4534FA7FB0434640914
:1030C8002601FFF7A9FA00EB800000EB80006C688E
:1030D800A400B0FBF4F9FFF79FFA00EB800000EBC7
:1030E80080006C68A400B0FBF4F4A7FB0434640906
:1030F8004FF0640808FB149424013234A7FB04340D
:10310800640904F0F0043444FFF786FA00EB800009
:1031180000EB80006E68B600B0FBF6F6FFF77CFAAD
:1031280000EB800000EB80006B689B00B0FBF3F0C5
:10313800A7FB0030400908FB10684FEA081808F19F
:103148003208A7FB0837C7F343172B6827449F604B
:10315800BDE8F883FFF770FA00EB800000EB800011
:103168006C68A400B0FBF4F4274FA7FB043464098F
:103178002601FFF761FA00EB800000EB80006C6825
:10318800A400B0FBF4F9FFF757FA00EB800000EB5E
:1031980080006C68A400B0FBF4F4A7FB0434640955
:1031A8004FF0640808FB149424013234A7FB04345C
:1031B800640904F0F0043444FFF73EFA00EB8000A1
:1031C80000EB80006E68B600B0FBF6F6FFF734FA45
:1031D80000EB800000EB80006B689B00B0FBF3F015
:1031E800A7FB0030400908FB10684FEA081808F1EF
:1031F8003208A7FB0837C7F343172B6827449F609B
:10320800A6E700BF003801401F85EB512DE9F041CA
:1032180005460F4616469846069C2B681B6837EAF3
:1032280003030CBF01230023B3421DD1B4F1FF3FB8
:10323800F3D02CB1FEF72AF8A0EB0800A042ECD995
:103248002A68D36823F4D073D3602A68536923F0BB
:1032580001035361202385F8393085F83A3000237B
:1032680085F83830032000E00020BDE8F08158B32D
:1032780010B5044690F839300BB3242384F839305C
:103288002268D36823F40053D3602046FFF7E8FE92
:103298002268136923F4904313612268536923F069
:1032A8002A0353612268D36843F40053D360002093
:1032B800E063202384F8393084F83A3010BD80F870
:1032C80038300CF00BFDD8E7012070472DE9F041AC
:1032D80082B01E4690F83930DBB2202B55D1044617
:1032E8000D469046002955D0002A55D090F8383020
:1032F800012B53D0012380F838300023C3632123E6
:1033080080F83930FDF7C2FF0746A4F82480A4F8F6
:10331800268010E000963B46002280212046FFF7D9
:1033280075FF00283CD12B882268C3F3080353603B
:103338002369C3B90235E38C9BB2B3B1E38C013B7B
:103348009BB2E384A368B3F5805FE3D000963B4665
:10335800002280212046FFF759FF18BB2A782368EE
:103368005A600135E7E70135E5E700963B4600225C
:1033780040212046FFF74AFF0346A8B9202284F8D7
:103388003920002284F8382000E00223184602B0D1
:10339800BDE8F0810123F9E70123F7E70223F5E708
:1033A8000323F3E70323F1E70323EFE730B583B003
:1033B80090F83A40E4B2202C3DD100293ED0002AB2
:1033C8003ED090F83830012B3CD013460A460446CC
:1033D800012180F83810826283850025C563222187
:1033E80080F83A10416B18488862616B1748C862C8
:1033F800616B17480863616B4D6321680431606B2A
:10340800FEF730FB019523681A6801925A68019209
:10341800019A84F83850DA6842F48072DA602268D7
:10342800536943F0010353612268536943F0400331
:103438005361284600E0022003B030BD0120FBE7BD
:103448000120F9E70220F7E7C13400080135000838
:103458000D35000810B5044601684A6990F83930FE
:10346800DBB2212B0AD021684A6902F0400294F8A5
:103478003A30DBB2222B11D0002010BD02F08002BE
:10348800002AF0D04B6923F080034B61006B08B130
:10349800FEF722FB2046FFF7CBFDE4E7002AEBD03E
:1034A8004B6923F040034B61606B08B1FEF714FBD6
:1034B8002046FFF7C6FDDFE708B5436A02681268D1
:1034C80012F0200F13D10022DA851968CA6822F495
:1034D8008072CA6019684A6922F001024A61196853
:1034E8004A6922F040024A61202283F83A201846AD
:1034F80004F086FE08BD704708B5406AFFF7FBFF79
:1035080008BD704710B5446A23685A6994F8393081
:10351800DBB2212B10D023685A6902F0400294F8DC
:103528003A30DBB2222B11D0E36B43F01003E36394
:103538002046FFF7E6FF10BD02F08002002AEAD01D
:103548000023E3842046FFF773FDE4E7002AEBD06D
:103558000023E3852046FFF774FDE5E700B585B055
:103568003E483F4B03604FF4807383600123C36080
:10357800002343614FF46022C26143600623036164
:10358800FEF774F8002846D10A2301930123029319
:103598000523039301A93148FDF7CEFE00283FD14A
:1035A8000B230193022302930523039301A92B48BC
:1035B800FDF7C2FE002838D10C23019303230293A0
:1035C8000523039301A92548FDF7B6FE002831D14C
:1035D8000D230193042302930523039301A91F4894
:1035E800FDF7AAFE58BB0E2301930523029303930C
:1035F80001A91A48FDF7A0FE30BB0F23019306234B
:1036080002930523039301A91448FDF795FE00BB17
:1036180005B05DF804FB4321124805F0D5FEB3E779
:103628004C21104805F0D0FEBAE755210D4805F0A9
:10363800CBFEC1E75E210B4805F0C6FEC8E7662150
:10364800084805F0C1FECEE76E21064805F0BCFE2D
:10365800D3E77621034805F0B7FED9E73008002004
:1036680000240140001E010802681D4B9A4200D048
:10367800704710B586B0044603F56C439A6942F466
:1036880000729A619B6903F400730193019B3F23C5
:1036980002930323039302A91248FEF7ABFB1248D7
:1036A800124B03600023436083608023C3604FF4A0
:1036B800007303614FF400634361202383614FF477
:1036C8000053C361FEF77EF920B9074B23625C62A1
:1036D80006B010BD9D21064805F076FEF5E700BF4F
:1036E800002401400010014060080020080002404A
:1036F800001E010800B585B04FF4807300930123C4
:1037080001930323039369460248FEF773FB05B050
:103718005DF804FB0010014070B50546FFF7EAFFAD
:10372800002406E06D08012280211148FEF761FCA3
:103738000134072C15DC0E4E00224FF48071304600
:10374800FEF757FC002280213046FEF752FC15F0A8
:10375800010FE7D001224FF480713046FEF749FC93
:10376800E0E7002280210248FEF743FC70BD00BF5D
:103778000010014030B585B04FF460730093012507
:10378800019503230393124C69462046FEF732FB4A
:10379800002280212046FEF72CFC00224FF4007105
:1037A8002046FEF726FC2A464FF400712046FEF715
:1037B80020FC8E20FFF7B0FF0020FFF7ADFF0022AE
:1037C8004FF400712046FEF714FC05B030BD00BF71
:1037D8000010014010B501224FF400710A48FEF7AD
:1037E80008FCBE20FFF798FF002404E0074B185D93
:1037F800FFF792FF0134072CF8DD00224FF4007127
:103808000148FEF7F6FB10BD001001400000002043
:1038180000B585B04FF480730093002301930293A1
:103828000323039369460348FEF7E4FA05B05DF8FD
:1038380004FB00BF0010014070B5FFF7E9FF00244A
:10384800254605E0012280210F48FEF7D2FB01350D
:10385800072D11DC0C4E002280213046FEF7C9FBF3
:1038680064084FF480713046FEF7BCFB0128E9D1AB
:1038780064F07F04E4B2E5E7002280210248FEF705
:10388800B8FB204670BD00BF0010014010B50122F2
:103898004FF400710A48FEF7ACFBBF20FFF73CFF6E
:1038A800002404E0FFF7C8FF064B18550134062C26
:1038B800F8DD00224FF400710148FEF79AFB10BDB5
:1038C80000100140A808002008B5FFF7DFFF0B49EA
:1038D800CA7802F00F000A4B1870C2F301125A702E
:1038E8000A7902F00F009870C2F30012DA708A7930
:1038F80002F00F01197112095A7108BDA8080020B9
:10390800B008002070B4FF2635460AE0037883EA41
:103918000502084B9D5C7540134493F800612146ED
:1039280001304B1E9CB20029F0D146EA052070BC3C
:10393800704700BFD81A0108F8B506460F46104D63
:1039480001224FF400412846FEF753FB0D4C226834
:10395800D36823F02003D3604FF6FF733A4631460D
:103968002046FFF7B3FC00224FF400412846FEF73B
:1039780040FB2268D36843F02003D360F8BD00BF42
:10398800001801409410002000B585B08DF80E0095
:103998006FF07F43009301230DF10F020DF10E012B
:1039A8000548FEF7CEFF10B1FF238DF80F309DF8C4
:1039B8000F0005B05DF804FBDC0E002070B506466C
:1039C8000C46154600224FF480511148FEF711FBB2
:1039D8000320FFF7D9FFC4F30740FFF7D5FFC4F36F
:1039E8000720FFF7D1FFE0B2FFF7CEFF05E0FF2089
:1039F800FFF7CAFF06F8010B25466B1E9CB2002D87
:103A0800F5D101224FF480510148FEF7F2FA70BD5A
:103A1800000C014010B5084C00224FF4805120469C
:103A2800FEF7E7FA0620FFF7AFFF01224FF48051B7
:103A38002046FEF7DEFA10BD000C014008B5002252
:103A48004FF480510948FEF7D4FA0520FFF79CFF90
:103A5800FF20FFF799FF10F0010FF9D101224FF471
:103A680080510248FEF7C5FA08BD00BF000C0140AE
:103A780038B50446FFF7CEFFFFF7E0FF0E4D0022F2
:103A88004FF480512846FEF7B4FA2020FFF77CFF58
:103A9800C4F30740FFF778FFC4F30720FFF774FF6C
:103AA800E0B2FFF771FF01224FF480512846FEF77C
:103AB800A0FAFFF7C3FF38BD000C014070B50646F9
:103AC8000C461546FFF7A6FF00224FF48051144814
:103AD800FEF78FFA0220FFF757FFC4F30740FFF7FE
:103AE80053FFC4F30720FFF74FFFE0B2FFF74CFF87
:103AF800B5F5807F07D94FF4807504E016F8010BFF
:103B0800FFF742FF25466B1E9CB2002DF6D101221D
:103B18004FF480510248FEF76CFAFFF78FFF70BD33
:103B2800000C01402DE9F84305460C469046CBB2FF
:103B3800110ADBB971B92146FFF7C0FF14E04FF451
:103B4800807221462846FFF7B9FF04F5807405F511
:103B5800807531464B1EDEB20029F0D15FFA88F23B
:103B680021462846FFF7AAFFBDE8F8835F42FFB267
:103B7800D6B289B9B7420BD23344DEB23A462146AF
:103B8800FFF79CFF32463919E819FFF797FFEBE773
:103B98002146FFF793FFE7E7BAB2A8EB0206B6B2F1
:103BA8004FEA16285FFA86F92146FFF787FF3C445B
:103BB8003D440AE04FF4807221462846FFF77EFF15
:103BC80004F5807405F58075B84608F1FF33DFB257
:103BD800B8F1000FEED1B9F1000FC5D0F2B221460D
:103BE8002846FFF76BFFBFE710B5084C00224FF4DB
:103BF80080512046FEF7FDF9B920FFF7C5FE0122E6
:103C08004FF480512046FEF7F4F910BD000C014036
:103C180010B5084C00224FF480512046FEF7E9F910
:103C2800AB20FFF7B1FE01224FF480512046FEF78A
:103C3800E0F910BD000C01402DE9F04F9DB09B4B01
:103C48001B78022B25D0994B00221A70984B1978B3
:103C5800984A1170C0B2187028B9974B1A6840F288
:103C6800E7339A4221D0924B1B78022B6BD0904BB2
:103C78001B78032B00F001818D4B1B78042B00F07F
:103C88002B818B4B1B780E2B00F094821DB0BDE866
:103C9800F08F874B1B78834203D001F03BFE05F081
:103CA800E7FB824B00221A70F0E74FF0EE0A8DF81E
:103CB8000CA0B1238DF80D3020238DF80E3000268E
:103CC8008DF80F608DF810608DF8116001258DF862
:103CD8001250FF248DF813404FF0FC098DF8149012
:103CE8008DF815408DF81640DFF8DC81734FB8F871
:103CF80000300B2203A93846FFF7E8FA4FF47A7030
:103D0800FDF7CAFA8DF80CA090238DF80D308DF8C8
:103D18000E508DF80F608DF810508DF811508DF8F9
:103D280012408DF813908DF814408DF81540B8F8AE
:103D380000300A2203A93846FFF7C8FA604B1A6810
:103D48005D4B1A608FE75F4B6C4693E8070084E889
:103D580007005D4E594D33880C2221462846FFF74F
:103D6800B5FAEE238DF80C30B1238DF80D30102301
:103D78008DF80E3000248DF80F4002238DF8103096
:103D88008DF8114001238DF8123078238DF8133007
:103D98008DF814308DF815308DF81630FF238DF816
:103DA8001730FC228DF818208DF819308DF81A304C
:103DB80033880F2203A92846FFF788FA234604E030
:103DC800424A7821D1540133DBB2032BF8D94FF0A2
:103DD800EE0B8DF80CB086238DF80D3001268DF88A
:103DE8000E608DF80F60F4238DF8103000258DF8E3
:103DF8001150DC238DF812308DF813508DF81450C3
:103E08004FF00C088DF81580FF248DF816404FF000
:103E1800FC0A8DF817A08DF818408DF81940DFF8C6
:103E2800A890264FB9F800300E220DEB080138464D
:103E3800FFF74CFA8DF80CB0B1238DF80D30022342
:103E48008DF80E308DF80F508DF810308DF8115018
:103E58008DF812608DF813608DF814408DF815A058
:103E68008DF816408DF81740B9F8003042460DEB32
:103E780008013846FFF72AFAF9E615494B71124D41
:103E88000E4C2B8817222046FFF720FA03AB114A65
:103E980007CA03C323F8022B120C1A702B880B22B3
:103EA80003A92046FFF712FAE6E600BFFE07002046
:103EB800E2070020ED07002004050020241200205E
:103EC800F0070020D81C010858030020EC08002047
:103ED8000C050020E41C0108BE494B71BE4B1B8831
:103EE8001722BE48FFF7F2F9EE238DF80C30B12304
:103EF8008DF80D3012238DF80E3000228DF80F202A
:103F080004238DF810308DF8112001238DF812301C
:103F18008DF8132003278DF81470B14B93F84500E2
:103F2800B049A1FB0046760906EB860CC6EBCC052A
:103F3800AC000519EDB2AC4CA4FB05E5FD400CEB5B
:103F48008C0C4FEA8C0EA0EB0E00C0B205EB850E70
:103F58004FEA4E0CA0EB0C00C0B230308DF81700C1
:103F680030368DF8156030358DF816508DF81820DC
:103F78008DF819708DF81A200F208DF81B0093F812
:103F88004700A1FB0056760906EB8607C6EBC70C6F
:103F98004FEA8C050544EDB2A4FB05C5ED0807EB17
:103FA80087074FEA870CA0EB0C00C0B205EB850C25
:103FB8004FEA4C07C01BC0B230308DF81E003036B7
:103FC8008DF81C6030358DF81D502E258DF81F504A
:103FD80093F84800A1FB00677F0907EB870CC7EB44
:103FE800CC0E4FEA8E060644F6B2A4FB06E6F608A7
:103FF8000CEB8C0C4FEA8C0EA0EB0E00C0B206EB5B
:10400800860E4FEA4E0CA0EB0C00C0B230308DF893
:10401800220030378DF8207030368DF821608DF809
:10402800235093F84900A1FB00677F0907EB870C31
:10403800C7EBCC0E4FEA8E060644F6B2A4FB06E6A2
:10404800F6080CEB8C0C4FEA8C0EA0EB0E00C0B2FD
:1040580006EB860E4FEA4E0CA0EB0C00C0B23030D7
:104068008DF8260030378DF8247030368DF82560AD
:104078008DF8275093F84A00A1FB0031490901EB5C
:104088008105C1EBC506B3000344DBB2A4FB0343BF
:10409800DB0805EB8505AC00001BC0B203EB83050C
:1040A8006C00001BC0B230308DF82A0030318DF81A
:1040B800281030338DF829308DF82B2006238DF801
:1040C8002C308DF82D200AE002F1220344491144D6
:1040D800497F1CA8034403F8641C0132D2B2404B48
:1040E8005B7F9342F0D202F122031CA90B44FF2408
:1040F80003F8644C02F123030B44FC2503F8645CC9
:1041080002F124030B4403F8644C02F125030B4429
:1041180003F8644CDFF8C080304FB8F8003026321E
:1041280003A93846FFF7D2F8C820FDF7B5F81023E1
:104138008DF80E3000238DF80F3004228DF81020F2
:104148008DF8113002238DF81230254E96F846303E
:104158008DF813308DF814408DF815508DF81640F1
:104168008DF81740B8F800300C220DEB02013846E4
:10417800FFF7ACF8C820FDF78FF805238DF812304B
:10418800337F6BB98DF81330134B1B880C220DEB62
:1041980002011248FFF79AF8C820FDF77DF870E58C
:1041A800323B124A82FB0312DB17C3EB62038DF822
:1041B8001330E9E703AB0E4A07CA03C323F8022BFF
:1041C800120C1A70044B1B880B2203A90348FFF733
:1041D8007DF85BE50C050020580300202412002020
:1041E800840C00201F85EB51CDCCCCCC676666666D
:1041F800E41C01082DE9F04FABB004460D46A04B76
:1042080000221A70022825D0022C00F07283032C99
:1042180000F08183042C00F09283052C00F0A38326
:10422800062C00F0B4830E2C00F0C583E31E9BB26D
:10423800012B40F2D683052C00F0E983062C00F010
:10424800FC83162D00F01084182D00F0BF842BB0CD
:10425800BDE8F08F0229D7D116460792ADF8202085
:10426800DFF840E218AF0EF1180CBCE80F000FC7DA
:10427800DCF8003027F8023B1B0C3B7009AB0EF151
:104288002C0207CA03C31A700CAB0EF1380207CA16
:1042980003C31A700FAB0EF1440207CA03C31A70A6
:1042A80012AB0EF10C0207CA03C323F8022B120C3F
:1042B8001A7015AB9EE8070083E807003146714B7A
:1042C8001878884209D94A1C6E4B9E5C6E4B134481
:1042D8005B7F9E420DD1D1B2F1E701265EB1E6B116
:1042E8000296032E90D8DFE816F02A0032004A0022
:1042F800A6010026F2E73346314688420BD94A1C0C
:10430800604B9F5C604B134493F82A309F42E6D180
:10431800D1B20223F1E71E46E1E73346314688422F
:104328000BD94A1C574B9F5C574B134493F83730B3
:104338009F42D5D1D1B20323F1E71E46D0E7534BB4
:104348001B88132218A95248FEF7C0FF5CE74F4F9D
:104358004F4E3B880C2215A93046FEF7B7FF3B8825
:10436800092209A93046FEF7B1FF4A4B03221A7009
:104378003B880B2212A93046FEF7A8FF44E7DFF876
:104388000C81434FB8F800300C2215A93846FEF7C7
:104398009DFFB8F8003009220CA93846FEF796FFB1
:1043A80005233C4A13703C494B71B8F8003017227A
:1043B8003846FEF78BFFFFF787FA334B5A6D0292A8
:1043C80093F8510093F85010039193F84F1093F815
:1043D8004E9093F84D2093F84CA0DFF8CCC09CF891
:1043E80005809CF804B09CF803709CF80230049394
:1043F8009CF801E09CF800C008EB88034FEA4308EA
:104408000BEB080302EB82024FEA42080AEB0802B0
:1044180001EB81014FEA410809EB080100EB80003C
:104428004FEA4008039840440EEB8E0E4FEA4E08C0
:10443800C4445FFA8CFCCDF804C007EB87074FEA49
:10444800470C049F6744FFB20097DBB2D2B2C9B2EF
:10445800C0B203F0C1FF029A101A27D442F21073B7
:1044680098426BDD0D4A82FB0032C317C3EB22333F
:10447800DBB28DF81D300A4A02FB030018E000BFCA
:10448800FE070020EC080020840C002058030020C0
:1044980024120020E20700200C050020AD8BDB6809
:1044A800F0D8FFFFD81C0108B00800200020012622
:1044B800B0F57A7F01DC012E0FD9C44A82FB0032A5
:1044C800C317C3EBA213DBB22AAA324402F88C3C0E
:1044D800BF4A02FB03000136F6B2642801DC012E54
:1044E80010D9BC4A82FB0032C317C3EB6213DBB29C
:1044F8002AAA324402F88C3C6FF0630202FB0300E4
:104508000136F6B20A2801DC012E10D9B24A82FB24
:104518000032C317C3EBA203DBB22AAA324402F863
:104528008C3C6FF0090202FB03000136F6B23746F5
:104538002AAB334403F88C0C00230AE00126B7E7C2
:104548002AAAD11811F88C2C303201F88C2C01339E
:10455800DBB2791C8B42F3DB8DF81C60EE238DF8FF
:104568007430B1238DF8753012238DF8763000231E
:104578008DF8773005228DF878208DF87930012272
:104588008DF87A208DF87B3008220BE0501C2AAE7B
:104598001E4416F88C6C2AAF3A4402F8346C013386
:1045A800DBB2C2B29942F1DC501CC0B22AAB9918F6
:1045B800002301F8343C911CC9B22AAE30440226CB
:1045C80000F8346C0332D2B22AA8014401F8343C12
:1045D8000BE0501C8149194491F82A102AAE324444
:1045E80002F8341C0133DBB2C2B27C4991F82A10BC
:1045F80001318B42EDDB531CDBB22AA91144FF20A9
:1046080001F8340C911CC9B22AAE3344FC2603F8D5
:10461800346CD31CDBB22AAE314401F8340C0432BA
:10462800334403F8340C6E4B1B88D2B21DA96D4875
:10463800FEF74CFEE8E5DFF8A8816A4FB8F80030CD
:104648000C2215A93846FEF741FEB8F800300922B9
:104658000FA93846FEF73AFE0623634A13706349EA
:104668004B71B8F8003017223846FEF72FFEFFF7D7
:104678002BF95A4B1A6E039293F85D0093F85C106D
:10468800049193F85B1093F85A70059793F85920A2
:1046980093F858A0DFF860C19CF805809CF804B036
:1046A8009CF803709CF802309CF801E09CF800C06C
:1046B80008EB88084FEA4809D94402EB82024FEA1E
:1046C80042080AEB080201EB81014FEA410805990B
:1046D800414400EB80004FEA4008049840440EEB48
:1046E8008E0E4FEA4E08C4445FFA8CFCCDF804C025
:1046F80007EB87074FEA470C6344DBB200935FFA86
:1047080089F3D2B2C9B2C0B203F066FE039A101A96
:1047180015D442F21073984212DD354B83FB002307
:10472800C217C2EB2332D2B2029B2AA90B4403F868
:104738008C2C304B03FB02000136F6B200E000205F
:10474800B0F57A7F01DC012E0FD9204A82FB0032B6
:10475800C317C3EBA213DBB22AAA324402F88C3C7B
:104768001B4A02FB03000136F6B2642801DC012E65
:1047780010D9184A82FB0032C317C3EB6213DBB2AD
:104788002AAA324402F88C3C6FF0630202FB030051
:104798000136F6B20A2801DC012E10D90E4A82FB36
:1047A8000032C317C3EBA203DBB22AAA324402F8D1
:1047B8008C3C6FF0090202FB03000136F6B2374663
:1047C8002AAB334403F88C0C002320E0D34D62104D
:1047D80018FCFFFF1F85EB5167666666840C002096
:1047E8005803002024120020E20700200C050020B6
:1047F800AD8BDB68F0D8FFFFB00800202AAAD118DB
:1048080011F88C2C303201F88C2C0133DBB2791C76
:104818008B42F3DB8DF81C60EE238DF87430B123E6
:104828008DF8753012238DF8763000238DF87730A7
:1048380006228DF878208DF8793001228DF87A20BB
:104848008DF87B3008220BE0501C2AAE1E4416F867
:104858008C6C2AAF3A4402F8346C0133DBB2C2B232
:104868009942F1DC501CC0B22AAB9918002301F818
:10487800343C911CC9B22AAE3044022600F8346C8C
:104888000332D2B22AA8014401F8343C0BE0501C90
:10489800A649194491F837102AAE324402F8341C5C
:1048A8000133DBB2C2B2A14991F8371001318B4212
:1048B800EDDB531CDBB22AA91144FF2001F8340CAC
:1048C800911CC9B22AAE3344FC2603F8346CD31CBD
:1048D800DBB22AAE314401F8340C0432334403F815
:1048E800340C934B1B88D2B21DA99248FEF7EEFCFC
:1048F8008AE4032D7FF48BAC1DAB8F4A07CA03C330
:104908001A708B4B1B8809221DA98A48FEF7DEFC0A
:1049180004F0AEFD7BE4092D7FF47CAC1DAB864A28
:1049280007CA03C31A70824B1B8809221DA9814834
:10493800FEF7CCFC00F0EEFF04F09AFD6AE4092DC6
:104948007FF46BAC1DAB7C4A07CA03C31A70784B63
:104958001B8809221DA97748FEF7B8FC00F0DAFF8A
:1049680004F086FD59E4092D7FF45AAC1DAB724A58
:1049780007CA03C31A706E4B1B8809221DA96D480C
:10498800FEF7A4FC00F0C6FF04F072FD48E4092D10
:104998007FF449AC1DAB684A07CA03C31A70644B5D
:1049A8001B8809221DA96348FEF790FC00F0B2FF9E
:1049B80004F05EFD37E4042D7FF438AC1DAB5F4A8C
:1049C80007CA03C31A705E4B1B788DF87830584BB2
:1049D8001B8809221DA95748FEF778FC04F048FDFA
:1049E80024E4082D7FF427AC1DAB534A07CA03C340
:1049F8001A704F4B1B8809221DA94E48FEF766FC0A
:104A080000F0C8FF00F086FF04F032FD13E4082D23
:104A18007FF414AC1DAB484A07CA03C31A70444B51
:104A28001B8809221DA94348FEF750FC00F0B2FF7D
:104A380000F070FF04F01CFD00E4082D7FF401ACC9
:104A48001DAB3D4A07CA03C31A70394B1B8809229C
:104A58001DA93848FEF73AFC00F09CFF00F05AFF09
:104A680004F006FDFFF7EDBB364B1A78364B1A718A
:104A7800364B1B7813B9354B01221A70334B5B78D0
:104A880013B9324B01225A70304B9B7813B92F4B14
:104A980001229A702D4BDB7813B92C4B0122DA7066
:104AA8002A4B1B7913B9294B01221A71274B5A79C2
:104AB8007AB9274B1A78244BDA71244B01225A71A0
:104AC8001B4B1B880C2220491A48FEF7FFFBFFF7F7
:104AD800BBBB164B1B7F1F49A1FB0313DB081A49FD
:104AE800CB71042B38D81A4B1B780133CB71174B79
:104AF8001B78012B42D0154B5B78012B46D0134B0A
:104B08009B78012B4AD0114BDB78012B4ED00F4BF1
:104B18001B79012B52D0012AD2D10D4B1A780A4B9E
:104B2800DA710A4B00225A71CAE700BF840C0020D0
:104B38005803002024120020281D0108341D0108F4
:104B4800ED070020E20700204C030020E4070020C6
:104B5800E0070020CDCCCCCC591FC9B2022905D81A
:104B68001D4B1B7802331D49CB71C0E7072BBED9FB
:104B7800194B1B7803331949CB71B8E7164B1978D1
:104B8800164BD971164B00211970B4E7124B1978DE
:104B9800124BD971124B00215970B0E70E4B19789E
:104BA8000E4BD9710E4B00219970ACE70A4B19785E
:104BB8000A4BD9710A4B0021D970A8E7064B19781E
:104BC800064BD971064B00211971A4E7054B012248
:104BD8001A70FFF73CBB00BFE00700204C03002021
:104BE800E4070020E10700202DE9F04F8FB00646CA
:104BF8008846174602ACB84D0FCD0FC40FCD0FC471
:104C080095E80F0007C42370B44B00221A70B44B08
:104C18001B78022B22D0032E33D0032E00F06E8196
:104C2800032E00F04C82032E00F05A82042E00F06E
:104C38006882042E00F07282042E00F00183052E93
:104C480000F00F83062E00F01F83052E00F02F833F
:104C5800062E00F046830FB0BDE8F08FB8F1010FC3
:104C6800D9D1A04B3C221A7000233B2B06D8FA5C02
:104C780022B101339B49CA54DBB2F6E7994A137053
:104C8800C9E7B8F1040FC8D1974D2C78384603F01E
:104C9800EBFC964A642303FB0424A0602C7803FBF6
:104CA80004231B7C032B67D0904A642303FB042353
:104CB8009D68D3F80C9049462846FCF7A3F90028CC
:104CC80040F09D80884B1C78884A642303FB0423AA
:104CD80093F81090864A52F8295029469868FCF7AC
:104CE800AFF918B1B9F1030F40F0C0807E4B1D78C1
:104CF8007E4A642303FB05231C7C7D4A52F82490DA
:104D080049469868FCF77EF9002886D0032C84D1A0
:104D1800764C4FF0640A0AFB0545C5F80890052251
:104D28000DF11101484603F0F7FB6F4D2B780AFB94
:104D3800034305220DF11A01D86803F0EDFB2B7827
:104D48000AFB03439869FBF76BFF05220DF123016A
:104D580003F0E2FB2B780AFB03446069FBF760FF72
:104D680005220BA903F0D8FB624B1B882D2202A950
:104D78006148FEF7ABFA50E7642303FB04239D6800
:104D8800D3F80C9049462846FCF75AF9002899D0E0
:104D9800DFF858A14FF0640B0BFB04A4C4F808908B
:104DA800E56005220DF11101484603F0B5FB4E4CB4
:104DB80023780BFB03A305220DF11A01D86803F031
:104DC800ABFB23780BFB03A39869FBF729FF0522AC
:104DD8000DF1230103F0A0FB23780BFB03AADAF8FB
:104DE8001400FBF71DFF05220BA903F095FB414BAF
:104DF8001B882D2202A94048FEF768FA62E7DFF80F
:104E0800ECA04FF0640B0BFB04A4C4F80890E56019
:104E180005220DF11101484603F07EFB324C237840
:104E28000BFB03A305220DF11A01D86803F074FBEC
:104E380023780BFB03A39869FBF7F2FE05220DF11B
:104E4800230103F069FB23780BFB03AADAF81400AB
:104E5800FBF7E6FE05220BA903F05EFB254B1B883A
:104E68002D2202A92448FEF731FA2BE7DFF87C90BF
:104E78004FF0640A0AFB0494A56005220DF11101A4
:104E8800284603F049FB184C23780AFB03930522B4
:104E98000DF11A01D86803F03FFB23780AFB03934E
:104EA8009869FBF7BDFE05220DF1230103F034FBE1
:104EB80023780AFB0399D9F81400FBF7B1FE052201
:104EC8000BA903F029FB0B4B1B882D2202A90A48CA
:104ED800FEF7FCF90AE700BF401D0108FE070020A5
:104EE800E2070020EC080020F9080020840C0020CC
:104EF800080000205803002024120020B8F1050FF4
:104F08007FF48EAEB94D2C78384603F0ADFBB84A25
:104F1800642303FB0424E0602C7803FB0423DD688E
:104F280029469868FCF76EF800285DD1AF4B1C78CD
:104F3800AF4A642303FB04231D7CAE4A02EB8502BF
:104F4800D2F820904946D868FCF75CF810B1032DD8
:104F580040F08180A54B1C78A54A642303FB0423F9
:104F68001D7CA44A02EB8502D2F820904946D868F5
:104F7800FCF766F800283FF453AE032D7FF450AEDB
:104F88009B4D4FF0640A0AFB0454C4F80C900522A8
:104F98000DF11101A06803F0BFFA944C23780AFBC5
:104FA800035305220DF11A01D86803F0B5FA2378E6
:104FB8000AFB03539869FBF733FE05220DF1230121
:104FC80003F0AAFA23780AFB03556869FBF728FE61
:104FD80005220BA903F0A0FA874B1B882D2202A9F2
:104FE8008648FEF773F91BE6DFF804924FF0640A6F
:104FF8000AFB0494A368A560E36005220DF1110182
:10500800284603F089FA794C23780AFB0393052292
:105018000DF11A01D86803F07FFA23780AFB03938D
:105028009869FBF7FDFD05220DF1230103F074FAE1
:1050380023780AFB0399D9F81400FBF7F1FD052240
:105048000BA903F069FA6C4B1B882D2202A96B4847
:10505800FEF73CF96AE7664D4FF0640A0AFB045410
:10506800C4F80C9005220DF11101A06803F054FA60
:105078005E4C23780AFB035305220DF11A01D86808
:1050880003F04AFA23780AFB03539869FBF7C8FD33
:1050980005220DF1230103F03FFA23780AFB03559B
:1050A8006869FBF7BDFD05220BA903F035FA524BE1
:1050B8001B882D2202A95148FEF708F94AE7B8F1E2
:1050C800060F7FF4B0AD384603F0CEFA474B1C7894
:1050D800FBF7C0FF464B642202FB0434A061A2E543
:1050E800B8F1070F7FF4A2AD384603F0BDFA3F4B85
:1050F8001C78FBF7AFFF3E4B642202FB043460616F
:1051080094E5B8F1010F7FF494AD384603F0ACFA9A
:10511800FBF7C6FF364B83F845008AE5B8F1030F65
:105128007FF48AAD002301930E2B09D8FA5C2E2A4E
:1051380006D00EA9194401F8342C0133DBB2F3E789
:105148000133DCB201A803F08FFAFBF7A9FF284B63
:1051580083F84700002306E00EAA1A44002102F84B
:10516800341C0133DBB2032BF6D900230E2B0AD8EB
:10517800E218BA5C2E2A06D00EA9194401F8342C7C
:105188000133DBB2F2E72344DBB20133DCB201A81E
:1051980003F06AFAFBF784FF154B83F848000023F5
:1051A80006E00EAA1A44002102F8341C0133DBB2CF
:1051B800032BF6D900230E2B0AD8E218BA5C2E2A44
:1051C80006D00EA9194401F8342C0133DBB2F2E7FA
:1051D8002344DBB20133DCB201A803F045FAFBF744
:1051E8005FFF034B83F84900002310E0F908002013
:1051F800840C0020080000205803002024120020FE
:105208000EAA1A44002102F8341C0133DBB2032B26
:10521800F6D900230E2B0AD8E218BA5C2E2A06D03B
:105228000EA9194401F8342C0133DBB2F2E701A8C6
:1052380003F01AFAFBF734FF374B83F84A00FBE414
:10524800B8F1060F7FF4FBAC002304E00133324AC7
:105258001A445177DBB2F95C0029F7D12E4A53770B
:10526800EDE4B8F1020F7FF4EDAC002305E0013363
:10527800294A1A4482F82A10DBB2F95C0029F6D1CF
:10528800254A82F82A30DDE4B8F1020F7FF4DDAC5C
:10529800002305E00133204A1A4482F83710DBB2B4
:1052A800F95C0029F6D11C4A82F83730CDE4B8F110
:1052B800010F7FF4CDAC384603F0D6F9FBF7F0FECA
:1052C800154B5865FEF700FB002307E0134AD15C35
:1052D800114A1A4482F84C100133DBB2052BF5D978
:1052E800B6E4B8F1010F7FF4B6AC384603F0BCF968
:1052F800FBF7D6FE084B1866FEF7E6FA002307E030
:10530800064AD15C044A1A4482F858100133DBB2C9
:10531800052BF5D99FE400BF840C0020B0080020BD
:1053280070B584B00C4615461E46324B00221A70E2
:10533800314B1B78042B09D02F4B1B78052B21D020
:105348002D4B1B78062B39D004B070BD0E29F3D134
:10535800012DF1D1012EEFD101AB284A07CA03C3B1
:105368001A70274B1B88092201A92648FDF7AEFFB2
:10537800022000F053FB00F00DFB00F0CBFA04F024
:1053880077F8D9E70E2CDBD1012DD9D1012ED7D151
:1053980001AB1A4A07CA03C31A70194B1B880922A2
:1053A80001A91848FDF792FF012000F037FB00F033
:1053B800F1FA00F0AFFA04F05BF8C1E70E2CC3D1A4
:1053C800012DC1D1012EBFD101AB0C4A07CA03C3BD
:1053D8001A700B4B1B88092201A90A48FDF776FFB2
:1053E800002000F01BFB00F0D5FA00F093FA04F05F
:1053F8003FF8A9E7FE070020E2070020281D010862
:1054080058030020241200202DE9F04391B00646ED
:105418000F469046934B00221A70934C04F1980360
:1054280093E8070010AB03E9070001AD68340FCC1F
:105438000FC50FCC0FC594E80F0007C52B70032EBE
:105448000FD0032E54D0032E5DD0042E00F0EB8035
:10545800042E00F0EF80042E00F0F38011B0BDE8B8
:10546800F083012FEDD1814B642404FB083494F8B8
:1054780044308DF83B30DFF800927D4DB9F80030AC
:105488000C220DA92846FDF721FF03238DF83A3099
:10549800237C8DF83B30B9F800300C220DA9284642
:1054A800FDF714FF05220DF10D01A06803F034F893
:1054B80005220DF11601E06803F02EF8A069FBF74C
:1054C800AFFB05220DF11F0103F026F86069FBF719
:1054D800A7FB05220AA903F01FF8B9F800302D220E
:1054E80001A92846FDF7F2FE624B83F80080A8E781
:1054F800022FA8D15F4B1B785C4A642101FB032370
:1055080083F844809FE7032F9FD15A4B1B78574954
:10551800642202FB031282F81080B8F1070F0ED83C
:10552800DFE808F004424B545D666F784F49642207
:1055380002FB03124FF07E5191600021D1604B4C69
:10554800642505FB034305220DF10D01986802F05F
:10555800E3FFDFF8209199F8003005FB03430522AB
:105568000DF11601D86802F0D7FF99F8003005FB55
:1055780003439869FBF754FB05220DF11F0102F064
:10558800CBFF99F8003005FB03446069FBF748FB43
:1055980005220AA902F0C0FF374B1B882D2201A95A
:1055A8003348FDF793FE50E73049642202FB0312AB
:1055B800324991600021D160C1E72C49642202FB85
:1055C80003122F4991600021D160B8E7274964226E
:1055D80002FB03122B4991602B49D160AFE72349A5
:1055E800642202FB0312294991600021D160A6E7D9
:1055F8001E49642202FB0312254991600021D160F3
:105608009DE71A49642202FB031222499160002196
:10561800D16094E71549642202FB03121E49916088
:105628000021D1608BE7022F7FF412AF0F4B83F874
:1056380046800DE7042F7FF40EAF0C4B83F84B80A8
:1056480009E7052F7FF40AAF08EB88033233074ACE
:105658001377B8F1000F7FF401AF134600221A77D1
:10566800FCE600BFFE070020D81C0108840C0020BF
:1056780024120020F908002058030020CDCCCC3F8C
:10568800000020400000C8C20000964300004843C4
:105698000000C8430000164400004844F8B54478A8
:1056A8008778C678037943EA06264379817941EAFF
:1056B8000321C579027A437AB12C11D1012F0CD07C
:1056C800272F0DD0103D0B2D0AD8DFE805F00A0F63
:1056D800090909090909090915193046FEF7ACFA3B
:1056E800F8BD1A463046FEF785FDF9E700F10802D5
:1056F8003046FFF779FAF3E73046FFF711FEEFE798
:105708003046FFF781FEEBE700B583B00A4B5A69D4
:1057180042F001025A615B6903F001030193019BA6
:10572800002204210B20FCF7BFF80B20FCF7F0F84F
:1057380003B05DF804FB00BF001002402DE9F04FF4
:105748008BB06D4B9A6942F040029A619A6902F0F7
:1057580040020192019A9A6942F010029A619A698C
:1057680002F010020292029A9A6942F004029A61C7
:105778009A6902F004020392039A9A6942F00802B5
:105788009A619A6902F008020492049A9A6942F0AE
:1057980020029A619B6903F020030593059BDFF8BB
:1057A80064B1002201215846FCF723FCDFF8588138
:1057B800002240F261314046FCF71BFC01224FF405
:1057C80080514046FCF715FC4C4F00224FF42071E5
:1057D8003846FCF70EFCDFF83491002248F201014C
:1057E8004846FCF706FCDFF828A1002246F2FC0137
:1057F8005046FCF7FEFB47F6FF7306930325079513
:1058080006A94846FCF7F6FA4FF460430693079555
:1058180006A93846FCF7EEFA49F2121306930795E3
:1058280006A95846FCF7E6FA40F61E430693079584
:1058380006A94046FCF7DEFA40F2613306930124DC
:1058480007940226099606A94046FCF7D3FA4FF4B6
:10585800805306930794099506A94046FCF7CAFAAF
:105868004FF41F430693079506A95046FCF7C2FA62
:105878004FF4A073069300250795089506A93846A6
:10588800FCF7B8FA4FF4945306930794099606A9BF
:105898003846FCF7AFFA40F60103069307940996D9
:1058A80006A95846FCF7A6FA4FF440630693144B32
:1058B8000793089406A93846FCF79CFA46F2FF03BA
:1058C80006930794099606A95046FCF793FA48F2FE
:1058D800010306930794099606A94846FCF78AFA35
:1058E8002A460B212820FBF7DFFF2820FCF710F8B9
:1058F8000BB0BDE8F08F00BF00100240001001405F
:105908000000211000080140000C0140001801406F
:105918000014014008B52520FCF706F82620FCF7FE
:1059280003F82720FCF700F80B20FBF7FDFF2820E1
:10593800FBF7FAFF1C20FBF7F7FF1E20FBF7F4FF2D
:105948004FF47A70FBF7A8FCFEF762F94FF47A720D
:1059580000210F48FEF732F8FEF746F94FF47A7047
:10596800FBF79AFC2520FBF7D3FF2620FBF7D0FF97
:105978002720FBF7CDFF0B20FBF7CAFF2820FBF7FA
:10598800C7FF1C20FBF7C4FF1E20FBF7C1FF08BDA3
:10599800840C002008B52520FBF7C6FF2620FBF75E
:1059A800C3FF2720FBF7C0FF0B20FBF7BDFF282014
:1059B800FBF7BAFF1C20FBF7B7FF1E20FBF7B4FF6D
:1059C8004FF47A70FBF768FCFEF722F90020FEF727
:1059D8004FF84FF47A7200210F48FEF7A3F8FEF74C
:1059E80003F94FF47A70FBF757FC2520FBF790FF7B
:1059F8002620FBF78DFF2720FBF78AFF0B20FBF7FC
:105A080087FF2820FBF784FF1C20FBF781FF1E205F
:105A1800FBF77EFF08BD00BF840C002010B50446CC
:105A2800002212E06949642303FB02134FF07E5100
:105A380099600021D9600021197401205861996189
:105A4800142183F844100244D2B2052AEAD900236B
:105A58000AE05F4A4FF07E5142F823105D4A002168
:105A680042F823100133DBB2052BF2D9574A32230F
:105A78001377012182F84510022382F84630C023AB
:105A880082F84730A82382F84830002382F849304A
:105A980082F84A1082F84B3004E04C4A3821D1543D
:105AA8000133DBB2052BF8D9FDF764FEFDF792FE52
:105AB80040F6B830FBF7F0FBFDF706FF012C4CD0A1
:105AC80014B1022C74D010BD404B082283F8372043
