:020000040800F2
:10000000281100204501000837340008312E00086F
:1000100035340008290B00080950000800000000D2
:10002000000000000000000000000000E34700089E
:10003000BF0B00080000000009440008D948000870
:100040005F0100085F0100085F0100085F01000810
:100050005F0100085F0100085F0100085F01000800
:100060005F0100085F0100085F010008590B0008EC
:100070005F0100085F010008650B0008710B0008B4
:100080007D0B0008890B00085F0100085F01000874
:100090005F0100085F0100085F0100085F010008C0
:1000A0005F0100085F0100085F0100085F010008B0
:1000B000A94900085F0100085F0100085F0100080E
:1000C0005F0100085F0100085F0100085F01000890
:1000D0005F010008D94F0008F14F00085F010008D8
:1000E000C10B00085F0100085F0100085F01000804
:1000F0005F0100085F0100085F0100085F01000860
:100100005F0100085F0100085F0100085F0100084F
:100110005F0100085F0100085F0100085F0100083F
:100120005F0100085F0100085F0100085F0100082F
:10013000DFF80CD000F022FC00480047AD62000858
:10014000281100200648804706480047FEE7FEE7E2
:10015000FEE7FEE7FEE7FEE7FEE7FEE7FEE7FEE777
:100160006149000831010008202A04DB203A21FA05
:1001700002F00021704721FA02F3D040C2F12002C0
:10018000914008431946704740EA01039B0703D09A
:1001900009E008C9121F08C0042AFAD203E011F8C6
:1001A000013B00F8013B521EF9D27047D2B201E088
:1001B00000F8012B491EFBD270470022F6E710B56C
:1001C00013460A4604461946FFF7F0FF204610BDC5
:1001D000F0B480EA0102D40F4200B2EB410F02D228
:1001E0000246084611464A0042D0C30DDDB2C1F3B3
:1001F000C752AD1A202D35DAC1F3160141F40002C1
:1002000004B15242C5F1200602FA06F12A41104417
:10021000B3EBD05F23D0C4B1012DA0EBC35009DCF8
:10022000F0BC4FF0004202EAC352DBB200F500001E
:1002300000F018BB400000F1807000EBC350A0F14B
:10024000807040EAD170490009E0490841EAC07174
:10025000A0EBC35000F50000400800EBC350F0BC19
:1002600000F0F7BA6142012202EB4101001BF6E700
:10027000F0BC704781F00041AAE780F00040A7E79A
:1002800080EA010210B502F00043400022D04A008B
:100290001FD0010E01EB1261C0F35600C2F35602EB
:1002A00040F4000042F40002A0FB022000047F3969
:1002B000140400D0401C50EA124001D44000491EF2
:1002C000C2B20C0604EBD010401C4008802A02D0B9
:1002D00003E0002010BD20F00100002900DA00201A
:1002E000184310BD30B480EA010202F0004530F03E
:1002F000004221F0004013D090B1C30DD40DC2F3E1
:100300001601C0F31600E41A41F4000140F40002A3
:100310007D34914201D3641C00E04900002C02DAD4
:1003200030BC002070474FF400000023914201D3FD
:10033000891A034340084FEA4101F7D151B1914274
:1003400002D14FF0004105E002D24FF0010101E07F
:100350006FF0010103EBC450284430BC00F079BABF
:100360002DE9FE4F804681EA0300C00F0C46009045
:1003700021F0004123F00045B8EB0200A94105D26D
:100380004046214690461C460B46024623F000405C
:10039000104347D0270DC7F30A00C3F30A51029058
:1003A000401A019040286BDAC3F3130040F4801B1D
:1003B0000098924620B10023D2EB030A63EB0B0BAB
:1003C00001985946C0F14002504600F021FA064615
:1003D0000D4650465946019A00F029FA10EB0800E4
:1003E0006141002487EA115284EAE7731A4340D03E
:1003F000009A62B3019A012A4FEA075215DC001BEA
:1004000061EB02014FF0004202EA0752CDE90042DF
:10041000001C41F5801132462B4600F060FA03B013
:10042000BDE8F08F40462146F9E7001B61EB020171
:10043000001C41F5801300185B412018A2F500173D
:1004400047EB030140EAD570B6196D4111E06D0824
:100450004FEA360645EAC0754FEA0752001B61EBCA
:100460000201001C41F5801149084FEA30000019D3
:10047000514132462B4603B0BDE8F04F00F020BAA0
:100480000098012240000023D0EB020263EBE073EE
:10049000009821464FEAE074B8EB000061EB0401DC
:1004A000E9E783F000435BE781F0004158E72DE97D
:1004B000FE4F81EA030404F0004421F0004100945F
:1004C0004FF0000B23F0004350EA01045ED052EAE3
:1004D00003045BD0C3F30A54C1F30A552C44A4F2BD
:1004E000F3340194A0FB0254C1F3130141F48011D1
:1004F000C3F3130343F4801301FB024400FB034ED8
:10050000840A970A44EA815447EA8357A4FB0768A0
:1005100002958D0A05FB07854FEA932C04FB0C54CA
:100520002705029D4FEA065847EA1637B5EB08053E
:100530006EEB070C870E920E47EA811742EA831290
:10054000A7FB0201B6EB0B0164EB00042B0D43EAA1
:100550000C335E1844EB1C50DA465146E7FB0201AF
:10056000C5F313044FEA0B3343EA14534FEA043242
:10057000019C43EA0603A4F10C040294009CCDE91B
:1005800000B400F0ACF903B0BDE8F08F00200146E4
:10059000F9E72DE9F04D81EA030404F0004B21F066
:1005A000004514464FF0000A23F0004150EA0502CE
:1005B00020D054EA01021DD0C5F30A570246C5F304
:1005C0001303C1F31300C1F30A5640F4801543F43A
:1005D0008013A7EB0608101BD64608F2FD3873EB14
:1005E000050002D308F1010801E092185B41B8F15F
:1005F000000F03DA00200146BDE8F08D00204FF423
:100600008011064684460EE0171B73EB050705D3E1
:10061000121B63EB050306434CEA010C49084FEA41
:10062000300092185B4150EA0107EDD152EA030015
:1006300012D082EA040083EA0501084305D0101BAA
:10064000AB4106D20122002306E000224FF0004316
:1006500002E06FF0010253101AEB06004CEB085158
:1006600010EB0A0041EB0B01BDE8F04D00F028B99A
:10067000C10F80EAE0700844CA079623002100F009
:10068000F1B80EB5C10F80EAE0700844CA07002136
:1006900040F233438DE80E000A460B4600F01FF986
:1006A00003B000BD0EB540F2334102910021CDE907
:1006B00000110A460B4600F012F903B000BD00F02D
:1006C000004220F00040C10DC0F3160040F40000CD
:1006D0007F2901DA00207047962903DCC1F19601D9
:1006E000C84001E096398840002AF4D04042704763
:1006F00020F00040C10DC0F3160040F400007F2937
:1007000001DA00207047962903DCC1F19601C84048
:10071000704796398840704770B5C1F30A5201F0AE
:1007200000450024C1F3130140F2FF3341F480116E
:100730009A4201DA002070BD40F233439A42A2F29D
:10074000334203DC5242FFF70FFD00E090402C43A0
:10075000F1D0404270BDC1F30A5210B5C1F313018C
:1007600040F2FF3341F480119A4201DA002010BDBB
:1007700040F233439A42A2F2334203DC5242FFF783
:10078000F3FC10BD904010BD00F0004230F000407E
:100790000AD0C10D01F56071C0F3160042EA0151A3
:1007A000C20840071143704700200146704701F01E
:1007B000004330B421F0004150EA010206D00A0D96
:1007C000A2F56072C1F31301002A02DC30BC0020E4
:1007D0007047440F44EAC104C100E01830BC00EB8C
:1007E000C25000F036B80000002801DBC0F1004024
:1007F000002901DBC1F1004181427047002801DB83
:10080000C0F10040002901DBC1F10041884270477E
:10081000202A04DB203A00FA02F1002070479140C0
:10082000C2F1200320FA03F3194390407047202AB5
:1008300006DBCB17203A41FA02F043EAE07306E008
:1008400041FA02F3D040C2F1200291400843194618
:1008500070470029A8BF7047401C490008BF20F01E
:100860000100704710B4B0FA80FC00FA0CF050EAB6
:10087000010404BF10BC704749B1CCF1200421FA37
:1008800004F411FA0CF118BF012121430843A3EB32
:100890000C01CB1D4FEA00614FEA102042BF00203F
:1008A00010BC704700EBC35010440029A4BF10BC1B
:1008B0007047401C490008BF20F0010010BC704781
:1008C00010B5141E73F1000408DA401C41F1000158
:1008D00092185B411A4301D120F0010010BD2DE9AF
:1008E000F04D92469B4611B1B1FA81F202E0B0FAA6
:1008F00080F220329046FFF78BFF04460F4640EA15
:100900000A0041EA0B0153465A46084313D01146E8
:1009100053EA010019D0C8F140025046FFF724FC09
:1009200005460E46504659464246FFF771FF0843BA
:1009300005D0012004E020463946BDE8F08D0020B6
:10094000054346EAE0762C4337430A986305E40AF8
:10095000A0EB08000022FD0A44EA47540A3002D501
:1009600000200146E9E7010510196941DDE9084564
:1009700000196941BDE8F04DA2E70000064C074DA3
:1009800006E0E06840F0010394E80700984710345F
:10099000AC42F6D3FFF7D0FBE0720008007300080A
:1009A00070B58C1810F8015B15F0070301D110F831
:1009B000013B2A1106D110F8012B03E010F8016B5E
:1009C00001F8016B5B1EF9D12B0705D40023521EE1
:1009D0000DD401F8013BFAE710F8013BCB1A921C49
:1009E00003E013F8015B01F8015B521EF9D5A14247
:1009F000D8D3002070BD000070B50446006881683F
:100A0000C943C9071CD1816821F00101816000F050
:100A100073FF05460FE000BF00F06EFF401B022889
:100A200009D9A06A40F01000A062E06A40F001001D
:100A3000E062012070BD20688068C043C007EBD031
:100A4000002070BD10B50146406A826A12F0500F56
:100A500005D0006A026BBDE8104008461047816A65
:100A600041F40071816201688968C1F3424107293C
:100A70000CD1C16851B9816A21F480718162816AA7
:100A8000C90403D4816A41F00101816200F014FAC3
:100A900010BD10B5406A816A41F040018162C16AAF
:100AA00041F00401C16200F009FA10BD10B5406ABE
:100AB00000F003FA10BD0000F8B5002604460096C9
:100AC00000688168C943C90728D0816841F00101E5
:100AD0008160134813490068B0FBF1F000E0401E4C
:100AE00000900028FBD100F007FF054611E000BF91
:100AF00000F002FF401B02280BD9A06A40F0100052
:100B0000A062E06A40F00100E06284F82460012005
:100B1000F8BD20688068C043C007E9D10020F8BD57
:100B20000000002040420F00FEE7000070B5094DB4
:100B3000FF22134605F5807606E000BF10F8014B52
:100B400054402A5D5A40335D491E89B2F6D243EAC9
:100B5000022070BD23010020014800F0BFBB00004F
:100B600020060020014800F0B9BB0000900B0020D7
:100B7000014800F0B3BB00004C0B0020014800F01E
:100B8000ADBB0000D40B0020014800F0A7BB000063
:100B9000180C002030B590F840500124AC40C56BD3
:100BA0006C60046863604368102B036803D099602D
:100BB0000068C26030BD9A600068C16030BD704797
:100BC00010B54FF4806000F08DFDBDE810404FF48B
:100BD000006000F087BD00002DE9F0470E46054695
:100BE00011463046FFF7E9FA15F1FF4F03D385F0C0
:100BF00000452D2000E02020307039480124DFF826
:100C0000E490854201DD054601E04D4511DB494692
:100C10002846FFF767FBFFF752FD00F130017170C6
:100C200064214843FFF724FD2946FFF726FB0546CC
:100C300002242D4FBD4201DA022C16D139468D42D5
:100C400005DB2846FFF74EFBFFF739FD00E00020EB
:100C500000F1300100EB800031554000FFF708FD46
:100C60002946FFF70AFB0546641C2846FFF727FDC7
:100C700000F130013155FFF7FBFC2946FFF7FDFA83
:100C8000641C8046042C01DA2E203055641C052C8F
:100C900023DA39464046FFF7F3FAFFF710FD00F17B
:100CA00030013155FFF7EDFC104A114BFFF7FFFB08
:100CB00007460D464046FFF767FD3A462B46FFF7CD
:100CC000F0FBFFF774FD641C052C06DA4946FFF7BC
:100CD000D7FAFFF7F4FC30303055BDE8F08700005C
:100CE00000C079440000C842000020419A999999B7
:100CF0009999B93FF8B500250446009590F824006D
:100D0000012808D0012084F824002046FFF774FE53
:100D1000060002D04BE00220F8BDA06A20F4885003
:100D200040F00200A062022000F0A4FE22490968FF
:100D3000B1FBF0F0400000E0401E00900028FBD125
:100D40002046FFF7B9FE2068816841F00801816004
:100D500000F0D2FD074604E000F0CEFDC01B0A28DB
:100D600011D8206880680007F6D42068816841F0B7
:100D70000401816000F0C0FD07460EE000F0BCFDFC
:100D8000C01B0A2809D9A06A20F0020040F0100018
:100D9000A06284F824500120F8BD206880684007D4
:100DA000ECD4A06A20F0020040F00100A06284F8B8
:100DB00024503046F8BD000000000020F8B50024A3
:100DC000009490F824202546012A12D0012280F8B0
:100DD00024204A681F23072A0DD20668776B521E0B
:100DE00002EB820293409F430B6893401F4377635B
:100DF00019E00220F8BD06680D2A0AD2376BD21F0F
:100E000002EB820293409F430B6893401F4337637A
:100E100009E0F76A0D3A02EB820293409F430B68A8
:100E200093401F43F7620A68072306680A2A0AD319
:100E3000F7680A3A02EB420293409F438B68934063
:100E40001F43F76008E0376902EB420293409F437B
:100E50008B6893401F4337610A68102A01D0112A1A
:100E600020D1124B02689A4217D193681B0219D401
:100E7000936843F4000393600968102912D10C4968
:100E80000C4A0968B1FBF2F101EB8101490000E075
:100E9000491E00910029FBD104E0816A41F0200144
:100EA0008162012480F824502046F8BD00240140CE
:100EB0000000002040420F0070477047704700005C
:100EC0002DE9F04104004FF0000514D0A06A00267F
:100ED00028B9E66284F82460204600F083F82046B2
:100EE000FFF78AFDA16A01F01001014304D0A06A56
:100EF00040F01000A0626BE0A16A21F4885141F03B
:100F00000201A162334923688B42E16904D1B1F542
:100F1000402F01D14FF40021E7684FF4807C41EA73
:100F2000470261680A43A168614509D0012907D0D9
:100F30005FF00001D4F814E0BEF1010F02D00AE026
:100F40006146F7E7C7B1A76A47F02007A762E76ADB
:100F500047F00107E7625F6827F469470F435F6066
:100F6000236899681C4F394011439960A168614515
:100F70000BD0012909D00CE0DFF860E0A7690EEB87
:100F800047370F4347F40061E5E7218A0D05A5F5D2
:100F900080152168CB6A23F470032B43CB62216850
:100FA00089680F4B1940914208D1E662A16A21F08D
:100FB000020141F00101A162BDE8F081A06A20F0C8
:100FC000020040F01000A062E06A40F00100E06220
:100FD0000120F1E7003C0140FDF7E1FF00E0FFFFE9
:100FE000FE0E1FFF30B505460068184985B08842DF
:100FF0002AD11748816941F400718161806969468D
:1010000000F4007004900720009003200190114824
:1010100000F074FB114C1048206000206060A0605C
:101020008020E06080002061800060612020A0615D
:101030000002E061204600F075FA18B1872108A08F
:1010400003F0E3FF2C62656205B030BD002401406F
:10105000001002400010014008000240200600205D
:101060002E2E2F5372632F6164632E6300000000E5
:101070002DE9F047894604463B4900683B4F0E1D69
:101080009046884201D0B84207D1306810F4702FE2
:1010900003D001252846BDE8F08794F824000128F4
:1010A0000CD0012084F824002046FFF705FD050040
:1010B0004FF0000004D084F82400EBE70220EAE7B8
:1010C000A16A40F60162914341F48071A1622168F6
:1010D000B94218D1326812F4702F14D0A16A41F4C9
:1010E0008011A1623168490505D5A16A21F400513A
:1010F00041F48051A162A16AC9040AD5E16A21F0D4
:101100000601E16206E0A26A22F48012A262496846
:10111000E9E7E06284F82400216A15488862216AC0
:101120001448C862216A1448086321686FF00200FD
:1011300008602068816841F48071816021684346BD
:101140004A464C31206A00F02FFA20688168C1F3CA
:1011500042410729816803D041F48011816099E7F9
:1011600041F4A001FAE700000024014000280140FA
:10117000450A0008AD0A0008930A000801680A68D9
:1011800022F00E020A6001680A6822F001020A6079
:1011900090F84020C36B012101FA02F25A6080F8F6
:1011A0002110002180F82010084670472DE9F05FDB
:1011B00090F821100024022903D004218163012426
:1011C00085E001680A6822F00E020A6001680A6878
:1011D00022F001020A603F4E3E4FB215DFF8F4C024
:1011E000DFF8F090DFF8ECA0DFF8E8B0DFF8E4E03B
:1011F0000168783F13011502ACF1640CA9F15009A4
:10120000AAF13C0AABF1280BAEF1140E4FF4801892
:10121000B14227D9B9420ED0614512D049451DD0FF
:10122000514518D0594518D0714501D1424615E0B5
:10123000294EB14201D1012210E0274E1436B142AD
:1012400001D110220AE0244E2836B14206D0224AAB
:101250003C32914201D11A4600E02A461E49091F3C
:101260000A602BE0B94213D0614517D0494522D01E
:1012700051451DD059451DD0714501D142461AE056
:10128000B14202D14FF0807215E0134EB14201D14C
:10129000012210E0104E1436B14201D110220AE0B2
:1012A0000D4E2836B14206D00B4A3C32914201D154
:1012B0001A4600E02A46074980394A60012180F831
:1012C0002110002180F82010416B01B18847204691
:1012D000BDE8F09F80000240080402402DE9F05F65
:1012E000C16B0A6801680B68046C4FF0040808FAC7
:1012F00004F8844D844E854FDFF814C2DFF8149251
:10130000DFF814A2DFF814B2DFF814E218EA020FD3
:1013100065D05FEA437862D50A68920603D40A680A
:1013200022F004020A60DFF8F0814FF48062016865
:1013300008F1140813011402414524D9A9420DD023
:10134000B1420FD0B9421AD0614515D0494515D0E8
:10135000514501D1120312E0594501D104220EE09A
:10136000714501D140220AE06D4D1435A94206D0E5
:101370006B4A2832914201D11A4600E02246674961
:10138000091F0A6029E0A94213D0B14215D0B94221
:1013900020D061451BD049451BD0514502D14FF4A7
:1013A000800217E0414502D14FF0806212E05945BA
:1013B00001D104220EE0714501D140220AE0584DCE
:1013C0001435A94206D0564A2832914201D11A4614
:1013D00000E022464B4908394A60C16A71E04FF08B
:1013E000020808FA04F818EA020F70D05FEA83785E
:1013F0006DD50A68920606D40A6822F00A020A60CD
:10140000012180F82110DFF810814FF4007201688B
:1014100008F1140813011402414524D9A9420DD042
:10142000B1420FD0B9421AD0614515D0494515D007
:10143000514501D1120312E0594501D102220EE0BB
:10144000714501D120220AE0354D1435A94206D05C
:10145000334A2832914201D11A4600E022462F49F0
:10146000091F0A6029E0A94213D0B14215D0B94240
:1014700020D061451BD049451BD0514502D14FF4C6
:10148000001217E0414502D14FF0007212E05945B9
:1014900001D102220EE0714501D120220AE0204D47
:1014A0001435A94206D01E4A2832914201D11A466B
:1014B00000E02246134908394A60002180F82010D4
:1014C000816A00291CD0BDE8F05F0847FFE70825C6
:1014D000A540154214D01A0712D50A6822F00E0250
:1014E0000A6090F84020C36B012101FA02F25A60B1
:1014F000816380F82110002180F82010016BE0E763
:10150000BDE8F09F080002401C000240300002408D
:1015100044000240580002406C00024008040240AF
:101520001C04024030B560B11C4A03681421934288
:1015300009D21B4A1A44B2FBF1F18900016419492E
:101540000AE0012030BD154A52421A44B2FBF1F1C3
:101550008900016411490839C163022180F8211012
:101560001A6843F6F0718A43F0E901142143D0E987
:1015700002452C4321430469214344692143846982
:10158000214311431960002141628162C1620163FC
:101590004163012242770177084630BD08040240CA
:1015A000F8FFFDBF0000024070B5044690F820002F
:1015B000002501280CD0012084F8200094F8216037
:1015C0000020012E06D084F820000225284670BD98
:1015D000022070BD022684F82160A063206806689E
:1015E00026F0010606602046FFF7D4FAE06A0028DC
:1015F0002068016802D041F00E0106E021F00401EC
:1016000001602068016841F00A01016020680168FA
:1016100041F001010160D9E731B500F06DF9009C9E
:101620000546601C00D0641C00F066F9401BA04217
:10163000FAD338BD2DE9F0414FF48065DFF8908092
:101640000127244E244CA8420BD1C820FFF7E4FF09
:101650002946404600F046F900B9A7713560BDE85B
:10166000F0814FF40065A842F9D11420FFF7D4FFB0
:101670002946404600F036F90028EFD11649A07AF5
:10168000CA3150B115480A22007FB0FBF2F0C87190
:10169000042806D8E07A401C0DE0E07AC871A772F1
:1016A0000CE0421F022A02D8E07A801C03E00728DF
:1016B00002D9E07AC01CC8710020A07206494FF61A
:1016C000FF730C22CA31064801F054FBC6E7000044
:1016D00000100140140401400400002050090020C3
:1016E000CC0A0020044910B50A68024202D0086002
:1016F000FFF7A0FF10BD0000140401402DE9F84FD2
:10170000DFF8B8A100220AF1040B144601274FF0BC
:101710000F090BF1040E00BF0B6807FA04F52B400C
:10172000AB4274D1DFF898C14E68A6EB0C08664551
:101730002BD00DDC032E34D005DC36B3012E19D0AE
:10174000022E2FD11BE0112E16D0122E2AD119E015
:10175000B8F5881F19D006DCB8F5803F15D0B8F56C
:10176000801F1FD111E0B8F5001F0ED0B8F5041F7F
:1017700018D10AE0CA6815E0CA68121D12E0CA68EA
:1017800008320FE0CA680C320CE08A682AB1012ADC
:101790004FF0080203D0456104E0042202E0056135
:1017A00000E00022FF2B01D8064601E000F104060C
:1017B0004FEA840501D9A5F12005D6F800C009FA41
:1017C00005F82CEA080C02FA05F54CEA050CC6F8F7
:1017D00000C04D68ED006AD53A4DAE6946F001068D
:1017E000AE61AD6924F0030605F001050095364DA4
:1017F00006EB050CDCF80850A6074FEA167809FA44
:1018000008F6B543314EB04202D100261AE04EE050
:101810002F4EB04201D1012614E02E4EB04201D12C
:1018200002260FE02C4EB04201D103260AE02B4ED7
:10183000B04201D1042605E0294EB04201D105266F
:1018400000E0062606FA08F62E43CCF808604D683C
:10185000DAF80060ED03554601D51E4300E09E43D3
:101860002E604D68AD0305D5DBF800601E43CBF854
:10187000006004E0DBF800509D43CBF800504D6859
:10188000DEF80060ED02754601D51E4300E09E4380
:101890002E604D68AD0205D5084D0C352E681E43EF
:1018A0002E6004E0054E0C3635689D433560641C9F
:1018B000102CFFF431AFBDE8F88F000000040140A8
:1018C000000011100010024000000140000801401B
:1018D000000C0140001001400014014000180140BC
:1018E000001C01408068084000D0012070470AB108
:1018F000016170470904FBE7014800687047000078
:101900003C05002002480168491C01607047000046
:101910003C050020074810B5016841F01001016046
:10192000032000F095F8002000F006F800F018F809
:10193000002010BD0020024010B5044607484FF4B7
:101940007A710068B0FBF1F000F07FFD00222146C3
:10195000501E00F05DF8002010BD000000000020C7
:101960001E4808B5816941F001018161806900F07C
:1019700001000090032000F06BF8002211466FF088
:101980000B0000F045F8002211466FF00A0000F04D
:101990003FF8002211466FF0090000F039F80022EC
:1019A0001146501F00F034F800221146101F00F0BD
:1019B0002FF800221146901E00F02AF8002211464E
:1019C000501E00F025F80648416821F0E0614160B2
:1019D000416841F00071416008BD00000010024004
:1019E0000000014000F01F020121914040098000E9
:1019F00000F1E020C0F88011704700F01F020121C3
:101A000091404009800000F1E020C0F800117047CB
:101A1000F0B40E4B1B680C46C3F30223C3F1070559
:101A2000042D00D90425191D072901D2002300E047
:101A3000DB1E012606FA05F1491E214099409E4011
:101A4000761E16403143F0BC01F0F6BC0CED00E010
:101A5000064900F0070208684FF6FF03184040EA05
:101A60000220034A10430860704700000CED00E0BC
:101A70000000FA0510B52CA401461DCC86B08DE8F7
:101A80001D002DA02D4C00680490002004292FD0AB
:101A90000BDC01292FD0022928D100F08BF96168D5
:101AA000C1F38131491C49001EE0082920D01029CA
:101AB0001CD161682268D20118D5C1F38342C903E1
:101AC0001DF8020009D5616804AAC1F34041515CC8
:101AD0001B4AB2FBF1F1484301E01A4948436168EF
:101AE000490203D440000321B0FBF1F006B010BD61
:101AF00000F070F9FAE7226AC2F30121012903D14B
:101B0000920701D5C803F1E7022905D1626A92075D
:101B100002D549F64040E9E70329E7D12168890366
:101B2000E4D54FF22440E1E7020304050607080963
:101B30000A0B0C0D0E0F10100102000000100240E5
:101B400000127A0000093D002DE9F84305460078AF
:101B5000354CC00754D0E0690026C00008D4E069C5
:101B600040F08050E061E069012600F08050009074
:101B70002E480168C90512D40168804641F480717D
:101B80000160FFF7B9FE074605E000BFFFF7B4FEAE
:101B9000C01B642823D8D8F80000C005F6D5206AF9
:101BA00010F4407021D0A98801F4407181421CD00A
:101BB000206A1F49012220F440700A6000220A6056
:101BC0002062C00711D0FFF797FE074641F2883820
:101BD00008E000BFFFF790FEC11B414502D903207A
:101BE000BDE8F883206A8007F4D5206A696820F48C
:101BF0004070084320621EB1E06920F08050E0612F
:101C00002878800705D56068A96820F4404008431B
:101C100060602878C00605D56068696920F4800096
:101C2000084360600020DBE70010024000700040C5
:101C3000400442422DE9F047DFF83C8105460E465C
:101C4000D8F8000000F00700B0420CD2D8F800101D
:101C500021F007013143C8F80010D8F8000000F067
:101C60000700B04263D12878444C800705D56068EE
:101C7000A96820F0F000084360602878C00745D0CC
:101C80006868012816D02168022816D08907002923
:101C90004DDA616821F0030101436160FFF72CFE1A
:101CA0006968074641F2883001290FD00229814630
:101CB00019D027E021688903E9E78901E7E700BF38
:101CC000FFF71AFEC11B494501D918E0814660683B
:101CD000C0F381000128F3D118E000BFFFF70CFE2C
:101CE000C11B49450BD86068C0F381000228F5D1BB
:101CF0000CE000BFFFF700FEC11B494502D90320DD
:101D0000BDE8F087606810F00C0FF3D1D8F8001030
:101D1000404601F00701B1420BD9016821F00701EB
:101D200031430160006800F00700B04201D001209B
:101D3000E6E72878400705D56068E96820F4E060A8
:101D4000084360602878000706D56068296920F498
:101D5000605040EAC100606000F03CF86168084AE9
:101D6000C1F30311515CC840064908600020FFF729
:101D7000E3FD0020C4E70000002002400010024004
:101D8000C872000800000020014800687047000089
:101D9000000000200448054900684968044AC1F36E
:101DA0000221515CC8407047000000200010024032
:101DB000D87200080448054900684968044AC1F31C
:101DC000C221515CC8407047000000200010024052
:101DD000D872000810B512A385B00FCB8DE80F00A4
:101DE00013A0144B006804905A68134802F00C01C9
:101DF00004290FD008290DD1C2F38344D2031DF862
:101E0000041009D55A6804ABC2F340429A5CB0FB97
:101E1000F2F0484305B010BD08484843FAE7000017
:101E200002030405060708090A0B0C0D0E0F10101B
:101E3000010200000010024000127A0000093D007B
:101E40002DE9F84F04460078B94DC00748D06868BE
:101E5000C0F38100012807D06868C0F38100022820
:101E600009D16868C00306D52868800338D5606842
:101E700000286FD034E06068B0F5803F0BD010B11F
:101E8000B0F5A02F11D0286820F480302860286891
:101E900020F4802002E0286840F4803028606068E8
:101EA00088B1FFF729FD064609E0286840F4802044
:101EB0002860F0E7FFF720FD801B642875D82868AC
:101EC0008003F7D50CE0FFF717FD064605E000BFDD
:101ED000FFF712FD801B6428F0D828688003F7D430
:101EE0002078944E80074FF001094FF000083BD551
:101EF000686810F00C0F07D06868C0F381000228F2
:101F000009D16868C00306D42868800714D5206901
:101F100001281FD110E02069B0B1C6F80090FFF78A
:101F2000EBFC074605E000BFFFF7E6FCC01B0228FC
:101F3000C4D828688007F7D52868616920F0F800C0
:101F400040EAC10028600FE0C6F80080FFF7D4FC2B
:101F5000074606E0E9E000BFFFF7CEFCC01B022801
:101F600023D828688007F7D4207800072CD572483A
:101F7000A169D9B1C0F80090FFF7BEFC074604E0A4
:101F8000FFF7BAFCC01B02280FD8686A8007F7D594
:101F90006A484FF4FA510068B0FBF1F0009000BFBE
:101FA0000098411E0091FAD20EE080E0C0F8008057
:101FB000FFF7A2FC074604E0FFF79EFCC01B0228C7
:101FC00075D8686A8007F7D42078400760D5E8693B
:101FD0000027C00008D4E86940F08050E861E86953
:101FE000012700F08050009055480168C90513D4BE
:101FF0000168834641F480710160FFF77DFC8246F1
:1020000006E000BFFFF778FCA0EB0A0064284ED87A
:10201000DBF80000C005F5D5E06801280AD008B15A
:10202000052813D0286A20F001002862286A20F0D1
:10203000040002E0286A40F001002862E06841F2F2
:10204000883B98B1FFF758FC82460BE0286A40F0C5
:1020500004002862EEE700BFFFF74EFCA0EB0A0188
:1020600059455AD8286A8007F6D50CE0FFF744FC9A
:10207000824605E0FFF740FCA0EB0A0159454CD829
:10208000286A8007F6D41FB1E86920F08050E86123
:10209000E06988B36968C1F38101022945D002284B
:1020A000C6F8608004D0FFF727FC044638E034E02F
:1020B000FFF722FC074604E0FFF71EFCC01B0228C6
:1020C0002BD828688001F7D4206AB0F5803F05D16D
:1020D0006868A16820F4003008436860D4E908010A
:1020E0000843696821F4741108436860C6F8609079
:1020F000FFF702FC044606E015E000BFFFF7FCFB1B
:10210000001B022809D828688001F7D50BE000BF22
:10211000FFF7F2FB001B022802D90320BDE8F88F6D
:1021200028688001F4D40020F8E70120F6E70000D9
:1021300000100240000042428004424200000020A1
:102140000070004070B5040005D00025A56294F829
:10215000510010B104E0012070BD204600F034F8B9
:10216000022084F851002068016821F040010160DC
:10217000D4E901010843D4E903121143084361691A
:102180000843218B01F400710843E1690843216A87
:102190000843A16A084321680860A069042101EA94
:1021A0001040616A0843216848602168E06A08615C
:1021B0002068C16921F40061C1616565012084F86E
:1021C0005100002070BD000030B51E4D0368002492
:1021D0001D480221032285B0AB4212D1836943F42A
:1021E000805383618069194D00F480500490A020D1
:1021F000CDE90001039269462846FFF77FFA4020A7
:1022000016E0134DAB421AD1C36943F48043C36156
:10221000C069104D00F4804004904FF42040CDE997
:102220000001039269462846FFF768FA4FF48040A0
:10223000CDE90004694628460294FFF75FFA05B02D
:1022400030BD000000300140001002400008014095
:1022500000380040000C01402DE9F84F044690F88A
:10226000500000260A9F9A4693460D464FF00108FB
:1022700001280ED0012084F85000FFF73DFB814675
:1022800094F85100616801280CD0B1F5827F07D124
:1022900002E00220BDE8F88FA16809B9042801D046
:1022A0000226BDE055B1BBF1000F07D0BAF1000F17
:1022B00004D094F85100012802D004E00126AFE0D8
:1022C000052084F8510000206065C4F838B0A4F8F7
:1022D0003EA0A4F83CA02563A4F836A0A4F834A03E
:1022E0002064606420680168490603D4016841F0F5
:1022F00040010160E068B0F5006F606804D0E8B3A9
:10230000E08E01283BD06AE010B1E08E01282ED18A
:10231000216835F8020BC860E08E401EE08626E09A
:10232000B8F1000F0DD0E08E58B1206881688907A0
:1023300007D535F8021BC160E08E401EE0864FF0E5
:102340000008E08F58B120688168C90707D0C068CD
:102350002BF8020BE08F401EE0874FF00108781C3D
:1023600005D0FFF7C9FAA0EB0900B84246D2E08ECB
:102370000028D5D1E08F0028D2D136E0FFE72168D0
:1023800015F8010B0873E08E401EE08627E000BFC1
:10239000B8F1000F0DD0E08E58B120688168890730
:1023A00007D515F8011B0173E08E401EE0864FF043
:1023B0000008E08F58B120688168C90707D0C0685D
:1023C0000BF8010BE08F401EE0874FF00108781CEE
:1023D00005D0FFF791FAA0EB0900B8420ED2E08ECB
:1023E0000028D5D1E08F0028D2D13B46012202211E
:1023F0002046CDF8009002F0A9F908B103260FE0BD
:102400004A463946204602F063F818B101262020DA
:10241000606505E0A06818B92068C1688068009010
:10242000012084F85100002084F85000304631E744
:102430004FF0E0210428086903D020F0040008616F
:10244000704740F00400FAE7704710B5401EB0F145
:10245000807F01D3012010BD4FF0E02460610F2187
:10246000601700F0E9FF0020A06107202061002034
:1024700010BD10B5FFF7E8FF10BD7047704730B5CD
:1024800090F83C20012A20D0012280F83C20022331
:1024900080F83D3003685C6824F070045C60036879
:1024A0005C680D682C435C6003689C6824F08004C1
:1024B0009C6003689C6849680C439C6080F83D20E0
:1024C000002180F83C10084630BD022030BD10B518
:1024D000040003D094F83D0010B107E0012010BDC6
:1024E000002084F83C00204600F00CF8022084F81C
:1024F0003D00211D206802F063FA012084F83D00B0
:10250000002010BD08B50068B0F1804F12D10A4814
:10251000C16941F00101C161C069002200F0010000
:10252000009002211C20FFF773FABDE808401C2030
:10253000FFF763BA08BD0000001002400168CA68D6
:1025400042F00102CA600068016841F001010160C7
:102550000020704770B5044690F83C00012817D061
:10256000012584F83C50022084F83D0020688268F0
:1025700022F0770222F47F4282600868502837D028
:102580000DDC202859D005DC88B3102841D151E05A
:10259000022070BD302853D040283AD13FE0602857
:1025A0002ED070280BD0B0F5805F03D0B0F5005F5F
:1025B0002FD110E02068816821F0070115E0CB6879
:1025C000D1E90121206802F041FA2168886840F0D1
:1025D000770088601DE0CB68D1E90121206802F016
:1025E00035FA2068816841F48041816011E01EE085
:1025F000CA684968206802F03BFA5021206806E06A
:10260000CA684968206802F044FA6021206802F034
:1026100027FA84F83D50002084F83C0070BDCA6859
:102620004968206802F024FA40212068EFE7002181
:102630002068ECE710212068E9E720212068E6E720
:1026400030212068E3E7704770B5044600680169EF
:102650004FF00005C943890715D4C168C9438907EC
:1026600011D4E91E0161012020772068806980076C
:10267000204602D0FFF7E7FF04E000F098F820467C
:1026800000F096F8257720680169C943490717D4F7
:10269000C168C943490713D46FF0040101610220E6
:1026A00020772068806910F4407F204602D0FFF731
:1026B000CAFF04E000F07BF8204600F079F82577A7
:1026C00020680169C943090716D4C168C9430907CD
:1026D00012D46FF008010161042020772068C069DE
:1026E0008007204602D0FFF7AEFF04E000F05FF85D
:1026F000204600F05DF8257720680169C943C906C6
:1027000017D4C168C943C90613D46FF01001016121
:10271000082020772068C06910F4407F204602D04E
:10272000FFF791FF04E000F042F8204600F040F887
:10273000257720680169C943C90708D1C168C94321
:10274000C90704D1891E0161204600F033F82068D2
:102750000169C943090609D4C168C943090605D4FA
:102760006FF0800101612046FFF787FE2068016954
:10277000C943490609D4C168C943490605D46FF065
:1027800040010161204600F085F820680169C943D5
:1027900089060BD4C168C943890607D46FF02001AC
:1027A00001612046BDE87040FFF768BE70BD70470C
:1027B00070470000FEB5334C4FF47A760020616913
:1027C000491C6161B14201DB606109E0B1F5167F2E
:1027D00006D1A1692C4A491CA161914200D9A0618E
:1027E0003C22A1690125B1FBF2F302FB131101B9EF
:1027F00065716169032291FBF2F302FB131202B9C6
:102800002572B1F5FA7F00D12571A278002A38D15E
:102810002269891A962934DB1C4991F8442012B3A5
:1028200091F8A820FAB191F80C11E1B1EE218DF8E0
:102830000010B1218DF801108DF802008DF8030011
:10284000FF208DF804508DF80500FC218DF806104E
:102850008DF807008DF808004FF6FF7309226946CE
:102860000B4800F087FAA078E070A570266102F0AE
:10287000DDFB02F0DBFB02F0D9FB02F0D7FB02F03C
:10288000D5FBFEBD040000202005080050090020F3
:10289000CC0A0020704710B504460068416994F8DE
:1028A0003920C1F3C011212A0BD151B1416921F066
:1028B00080014161206B08B1FEF760FC204602F008
:1028C00058F92068416994F83A20C1F38011222A0E
:1028D0000BD151B1416921F040014161606B08B1F8
:1028E000FEF74CFC204602F036F9002010BD704780
:1028F00070B5026804461068D168536910F00F0F74
:1029000051D003F0010501F4907635435DD0C20744
:1029100005D0CA0503D5E26B42F00102E26342072B
:1029200005D5DA0703D0E26B42F00202E2638207C8
:1029300005D5DA0703D0E26B42F00402E263020736
:1029400005D5DA0703D0E26B42F00802E263E26BDE
:10295000002A34D0800604D5880602D5204602F02D
:1029600011F920684069E16BC0F3801001F00801A3
:102970000143204624D002F0EEF820684169490660
:102980001AD5416921F040014161606BA0B11B493A
:102990004163606BFEF70AFC002810D0606B416B4E
:1029A000BDE87040084783060FD58B060DD520463D
:1029B000BDE8704002F0E6B82046FFF798FF70BD12
:1029C000FFF795FF0020E06370BD030606D50B06F8
:1029D00004D52046BDE8704002F09ABA4006F3D50F
:1029E0004806F1D5D168204621F04001D160202170
:1029F00084F8391000F01BFA70BD0000B74A0008D7
:102A000070B5040004D094F83900002510B106E038
:102A1000012070BD84F83850204600F023F82420AF
:102A200084F839002068C16821F40051C160204653
:102A300002F0B6F92068016921F490410161206833
:102A4000416921F02A0141612068C16841F40051C7
:102A5000C160E563202084F8390084F83A00002042
:102A600070BD00002DE9F0470446DFF83882D0F849
:102A700000C08D48022103228C4B102700258026A0
:102A800086B04FF48069C44552D1D0F818C04CF4D8
:102A9000804CC0F818C08069039200F48040049014
:102AA0000802CDE90001694698461846FEF726FE61
:102AB000CDE90095694640460295FEF71FFEDFF816
:102AC000F4917B4948464FF4005AC0E90015C0E92B
:102AD0000256C9F81050C9F81450C9E9065AB04650
:102AE000FEF720FD18B1952173A002F08EFA714E09
:102AF0006F48C4F8349044361438C9F82440306024
:102B0000C6E90175C6E903857561C6E9065A30460E
:102B1000FEF708FD18B1A42167A002F076FA26633B
:102B20000022114625207462FEF772FF25205BE02B
:102B3000DFF894814FF4405AC4455AD1D0F81CC0F4
:102B40004CF4003CC0F81CC0C069039200F4003093
:102B500004900420CDE90001694698461846FEF726
:102B6000CDFD0820CDE90005A946694640460295FD
:102B7000FEF7C4FDDFF83C814D4908F18808404666
:102B80001431C0E90015C0E90256C8F81050C8F861
:102B90001450C8E9065AFEF7C5FC18B1D02146A06A
:102BA00002F033FA434D4248C4F83480CC35283023
:102BB000C8F82440C5E90007C5E90296C5F8109099
:102BC000C5F81490C5E9069A2846FEF7ABFC18B183
:102BD000DF2139A002F019FA256300220121262005
:102BE0006C62FEF715FF2620FEF707FF06B0BDE872
:102BF000F087364B9C45F9D1C36943F48023C36108
:102C0000C069CDE9009100F48020CDE90320DFF810
:102C1000C08069464046FEF771FD4FF40060CDE983
:102C20000005A946694640460295FEF767FDDFF8B4
:102C3000A4801F4940462839C0E90015C0E9025662
:102C4000C8F81050C8F81450C8E9065AFEF76AFCD4
:102C500020B140F20B1118A002F0D7F91D4D144815
:102C6000C4F8348044353C38C8F82440C5E900072E
:102C7000C5E90296C5F81090C5F81490C5E9069A02
:102C80002846FEF74FFC20B14FF48D710AA002F0E8
:102C9000BCF925630022022127206C62FEF7B8FEF2
:102CA0002720A1E700380140001002400008014041
:102CB000580002404C0B00202E2E2F5372632F75AC
:102CC000736172742E6300000044004000480040AD
:102CD000000C01405C0C0020F8B5044690F83A0066
:102CE00020283CD1C1B3BAB394F83800012836D0BB
:102CF000012084F83800A162A2850025E563222026
:102D000084F83A00636B17489862636B1648D86280
:102D1000636B16481863606B134645630846666B21
:102D2000216802463046091DFEF73EFC2068016816
:102D30004168009184F83850C16841F48071C160E5
:102D40002068416941F0010141612068416941F019
:102D5000400141610020F8BDFFE70120FBE70220B0
:102D6000F9E70000114B00084D4B0008C74A000866
:102D7000704770472DE9F843044690F839001F4624
:102D800016460D46202850D1A5B19EB194F83800C2
:102D900001284AD0012084F838004FF00008C4F818
:102DA0003C80212084F83900FEF7A6FDA6848146E8
:102DB000E68426E00120BDE8F883E08C401EE08434
:102DC000A0684B46B0F5805F4FF000024FF08001E5
:102DD0002046009703D002F0CCF8E8B90DE002F0ED
:102DE000C8F8C8B928882168C0F30800486020697D
:102DF00008B16D1C05E0AD1C03E0216815F8010B5E
:102E00004860E08C0028D8D14B4600224021204663
:102E1000009702F0AEF808B10320CCE7202084F838
:102E2000390084F838800020C5E70220C3E77047E6
:102E3000FEE700001FB54FF4807000900020019065
:102E400002900320039069460148FEF757FC1FBD1E
:102E5000001001401FB54FF48070009001200190D8
:102E60000320039069460248FEF748FC1FBD00009E
:102E7000001001402DE9F04104462520FEF7B2FD87
:102E80002620FEF7AFFD0B20FEF7ACFD0E20FEF76F
:102E9000A9FD0F20FEF7A6FD1020FEF7A3FD1120CF
:102EA000FEF7A0FD2820FEF79DFD1C20FEF79AFDF1
:102EB0002B4E002208213046FEF719FD0520FEF7B3
:102EC000ABFB04F0010000254FF4167700284FF00B
:102ED00001024FF0080130460BD0FEF708FD3846DE
:102EE00002F090FA002208213046FEF700FDC820CB
:102EF0000AE0FEF7FCFCC82002F084FA0022082158
:102F00003046FEF7F4FC384602F07CFA64086D1C8B
:102F1000EDB204F00100082DD8D30122082130467B
:102F2000FEF7E5FC2520FEF768FD2620FEF765FD8F
:102F30000B20FEF762FD0E20FEF75FFD0F20FEF76F
:102F40005CFD1020FEF759FD1120FEF756FD2820EC
:102F5000FEF753FDBDE8F0411C20FEF74EBD00001A
:102F6000001401403EB520481E4901240160891526
:102F7000C0E902140021416103254FF4602205617C
:102F8000C2614160FDF79CFF18B1452117A002F016
:102F90003CF80A20CDE90004052002906946124859
:102FA000FDF70CFF18B14F2110A002F02EF80B20F6
:102FB00000900220019069460B48FDF7FFFE18B112
:102FC00058210AA002F021F80C20CDE9000569463D
:102FD0000548FDF7F3FE002803D0612103A002F0AD
:102FE00014F83EBD00240140F00500202E2E2F5382
:102FF00072632F6164632E6300000000214808B5EE
:10300000416941F0010141614069002200F0010085
:10301000009001210B20FEF7FBFC0B20FEF7EDFCDE
:10302000002203210C20FEF7F3FC0C20FEF7E5FC48
:10303000002203210D20FEF7EBFC0D20FEF7DDFC46
:10304000002202210E20FEF7E3FC0E20FEF7D5FC45
:10305000002202210F20FEF7DBFC0F20FEF7CDFC43
:10306000002211461020FEF7D3FC1020FEF7C5FC0D
:10307000002211461120FEF7CBFCBDE808401120CC
:10308000FEF7BBBC001002402DE9F04F5D4885B053
:10309000816941F040018161816901F04001049141
:1030A000816941F010018161816901F01001049191
:1030B000816941F004018161816901F00401049199
:1030C000816941F008018161816901F00801049181
:1030D000816941F0200181618069DFF82CA100F055
:1030E000200040F2E1350490002229465046FEF7C8
:1030F000FEFB0122170339465046FEF7F8FB4FF45A
:103100009458002241464148FEF7F1FBDFF800B138
:103110004FF40069002249465846FEF7E8FB0022BA
:10312000FF213C48FEF7E3FB4FF6FF700324CDE997
:10313000000469463848FEF7E1FA4EF23800CDE95E
:10314000000469463148FEF7D9FA49F21310CDE977
:10315000000469465846FEF7D1FA0095012502267B
:103160006946504603960195FEF7C8FA40F61E40A0
:10317000CDE9000469465046FEF7C0FACDE9007576
:10318000694650460394FEF7B9FA4FF47F40CDE903
:10319000000469461F48FEF7B1FA4FF4A070009092
:1031A00000200190029069461848FEF7A7FACDE981
:1031B0000085694615480396FEF7A0FACDE900950B
:1031C000694658460396FEF799FAA0020090134804
:1031D000CDE9010569460D48FEF790FAFF20CDE9DB
:1031E0000005694603960B48FEF788FA0022032182
:1031F0002820FEF70DFC2820FEF7FFFB05B0BDE8F8
:10320000F08F000000100240000C0140001001404F
:103210000008014000140140001801400000211086
:10322000114810B50F4901604FF4827141600021CF
:103230008160C1604FF400720161C0E9051208228B
:10324000C0E90721416281620A21C162FEF77AFF6B
:10325000002805D0BDE81040462104A001F0D5BEED
:1032600010BD000000300140400500202E2E2F53DD
:1032700072632F7370692E6300000000114810B54F
:103280000F4901604FF48271416000210222816088
:10329000C0E9031201224261520282610822C0E9A0
:1032A0000721416281620A21C162FEF74BFF0028BB
:1032B00005D0BDE810405C2103A001F0A6BE10BD02
:1032C00000380040980500202E2E2F5372632F7374
:1032D00070692E630000000010B5184886B04FF0EA
:1032E0008041016048F69F410024C0E90114C821D3
:1032F000C0E9031480218161FFF7E9F818B13F218B
:103300000FA001F082FE4FF48050009069460B48F8
:10331000FFF720F918B1452109A001F076FE0494C9
:1033200004A906480594FFF7AAF8002803D04C2109
:1033300003A001F06AFE06B010BD0000E40C0020FE
:103340002E2E5C5372635C74696D2E630000000066
:103350000D4810B50B4901604FF416514160002132
:1033600081600C22C160C0E904128161C161FFF774
:1033700047FB002805D0BDE81040492103A001F01B
:1033800044BE10BD003801408C0A00202E2E2F5361
:1033900072632F75736172742E6300000D4810B54F
:1033A0000B4901604FF4E1314160002181600C2242
:1033B000C160C0E904128161C161FFF721FB0028EF
:1033C00005D0BDE810405A2103A001F01EBE10BD7B
:1033D00000440040CC0A00202E2E2F5372632F751C
:1033E000736172742E6300000D4810B50B490160C3
:1033F0004FF416514160002181600C22C160C0E988
:1034000004128161C161FFF7FBFA002805D0BDE815
:1034100010406C2103A001F0F8BD10BD0048004031
:103420000C0B00202E2E2F5372632F757361727454
:103430002E630000FEE770470907090E002806DA30
:1034400000F00F0000F1E02080F8141D704700F13B
:10345000E02080F8001470472DE9F04F0D46FE493A
:10346000DFF8F8A3ABB0002008709AF80010FC4C0D
:1034700002297CD1022D7CD1834602900390002644
:103480001422F8A125A8FCF77FFEFBA219AB07CAFE
:1034900083E80700FBA21CAB07CA83E80700FCA275
:1034A0001FAB07CA83E80700FCA222AB07CA83E868
:1034B0000700FDA212AB07CA83E80700FD48FE4BD8
:1034C00002780AE09F19815D7F7FB94203D0002610
:1034D0003146994610E0761CF6B2B242F2D82CE0A2
:1034E00009EB0103465C93F82A309E4201D0002686
:1034F00005E00226491CC9B28A42F1D86EB9002102
:103500004B4608E05F18465C97F83770BE420FD113
:103510000326491CC9B28A42F4D84EB1012E0CD000
:10352000E64F0DF10808022E29D0032E1FD119E114
:103530004FF6FF73132225A916E04FF6FF763346A8
:103540000C2212A9DE48FFF715FC3346092219A9FF
:10355000DB48FFF70FFC9AF80010217003218AF86E
:10356000001033460B2222A9D548FFF703FC56462C
:1035700000E0CAE29AF8000003287DD033E24FF65B
:10358000FF7633460C2212A9CD48FFF7F3FB3346F2
:1035900009221CA9CA48FFF7EDFB9AF80010217018
:1035A00005218AF8001002F055FA79783A7801EB93
:1035B000810102EB4101FB78BA7803EB830302EB54
:1035C0004302C9B2D2B2CDE900217879397900EB52
:1035D000800001EB40004E46C3B216F84C0F7178E4
:1035E000777901EB810100EB4100C2B2F178B0784C
:1035F00001EB810100EB4100C1B2307907EB870795
:1036000000EB4700C0B201F007FFB168A6F14C061D
:10361000091A4FF0010001D5002141E042F2107279
:1036200091420ADD91FBF2F0C0B28DF809006FF40F
:103630001C72504301EB001102204FF47A72914248
:1036400001DC01280AD991FBF2F2D2B208F800207D
:103650006FF07C035A4301EBC201401C642901DC7A
:1036600001280DD9642291FBF2F2D2B208F80020B1
:103670006FF018035A4300E09FE101EB8201401C08
:103680000A2901DC01280BD90A2291FBF2F2D2B2FD
:1036900008F80020524202EB820201EB4201401C7A
:1036A00008F800100021421C07E000BF18F80130A4
:1036B000303308F80130491CC9B29142F6D3EE22EA
:1036C0008DF814200527B1238DF818708DF815306A
:1036D000012212238DF819B08DF81A208DF81630BA
:1036E0008DF808000822002705A94FF002095B4663
:1036F0008DF817B08DF81BB0401C07E018F807C014
:1037000001F802C0521C7F1CD2B2FFB2B842F5D8F9
:103710008B54521CD0B201F80090401CC0B20B5424
:10372000401CC2B296F82A3000205B1C07E0371814
:1037300097F82A708F54521C401CD2B2C0B28342F8
:10374000F5D8FF208854521CD2B2FC238B54521C53
:10375000D2B24FF6FF738854521CD2B28854521C16
:10376000D2B201E74FF6FF730C2212A95448FFF7BB
:1037700001FB4FF6FF7309221FA95148FFF7FAFA20
:103780009AF80010217006218AF8001002F062F900
:103790007A78397802EB820201EB4201FB78BA7841
:1037A00003EB830302EB4302C9B2D2B2CDE900219D
:1037B0007879397900EB800001EB4000C3B299F8C9
:1037C000590099F8581000EB800001EB4000C2B29C
:1037D00099F85B0099F85A1000EB800001EB40006B
:1037E000C1B299F85D0099F85C7000EB800007EBBE
:1037F0004000C0B201F010FED9F86010081A01D5DF
:10380000002013E042F2107188420ADD90FBF1F1D2
:10381000C9B28DF80B106FF41C72514300EB01100C
:103820000426B0F57A7F01DC012E0CD94FF47A71B1
:1038300090FBF1F1C9B208F806106FF07C02514319
:1038400000EBC100761C642801DC012E42D9642102
:1038500090FBF1F1C9B235E008000020060000201D
:1038600007000020EEB11000020004C3DCC2EBB47C
:10387000EDCEF3FFFCFFFF00EEB1000003FFFCFF05
:10388000FF000000EEB1000005FFFCFFFF0000009C
:10389000EEB1000006FFFCFFFF000000EEB11100DA
:1038A000030001FFFCFFFF00EEB110000200042046
:1038B000FFFCFFFF7C0A00205009002008010020C7
:1038C000CC0A002008F806106FF01802514300EBF4
:1038D0008100761C0A2801DC012E0BD90A2190FBFD
:1038E000F1F1C9B208F80610494201EB810100EB81
:1038F0004100761C08F806000020711C07E000BF9C
:1039000018F80020303208F80020401CC0B288426D
:10391000F6D3EE218DF814100623B1228DF818305D
:103920008DF81520012112228DF819B08DF81A108A
:103930008DF816208DF808600821002305A84FF0A7
:10394000020C5A468DF817B08DF81BB0761C06E0B5
:1039500018F803704754491C5B1CC9B2DBB29E4285
:10396000F6D84254491CC9B2002300F801C0491CD2
:10397000C9B24E464254491CCAB299F83710491C84
:1039800007E0F71897F837708754521C5B1CD2B2C7
:10399000DBB29942F5D8FF218154521CD2B2FC23EC
:1039A0008354521CD2B24FF6FF738154521CD2B2D0
:1039B0008154521CD2B20146D6E5092D7AD101F0CC
:1039C000C1FE5FA24FF6FF7307CA8DE8070020789B
:1039D0008DF80400092269465C48FFF7CBF920788E
:1039E0003070032020703078042815D1092D61D162
:1039F00001F0A8FE52A04FF6FF7307C88DE807003C
:103A000020788DF80400092269465048FFF7B2F982
:103A100020783070042020703078052815D1092DC9
:103A200077D147A14FF6FF7307C98DE807002078CB
:103A30008DF80400092269464448FFF79BF9207875
:103A400030700520207001F07DFE3078062815D1F9
:103A5000092D47D13AA04FF6FF7307C88DE807003C
:103A600020788DF80400092269463848FFF782F96A
:103A7000207830700620207001F064FE30780E2827
:103A800013D1042D41D12EA04FF6FF7307C88DE846
:103A9000070020788DF80400092269462B48FFF7BB
:103AA00069F9207830700E2020703078032801D01A
:103AB000042812D1082D10D125A14FF6FF7307C994
:103AC0008DE80700092269462048FFF753F901F005
:103AD00083FE01F037FE01F0DFFF3078052818D0B3
:103AE000062812D1082D10D119A24FF6FF7307CA6C
:103AF0008DE80700092269461448FFF73BF901F0F9
:103B00006BFE01F01FFE01F0C7FF2BB0BDE8F08F88
:103B1000FFE7082DF9D10EA24FF6FF7307CA8DE813
:103B20000700092269460948FFF724F901F054FE0D
:103B300001F008FE01F0B0FF30780628D4D0E4E7A9
:103B4000EEB1000001FFFCFFFF000000CC0A0020E6
:103B5000EEB1000007FFFCFFFF000000FEB50D46C0
:103B60002C492D4E0020087030781C464FF6FF7708
:103B7000042816D10E2D30D1002C2ED127A23B4681
:103B800007CA8DE80700092269462748FFF7F2F8BF
:103B9000022001F06DFE01F01FFE01F0D3FD01F0E7
:103BA0007BFF3078052819D0062816D10E2D14D1A8
:103BB000002C12D119A03B4607C88DE80700092246
:103BC00069461948FFF7D6F8002001F051FE01F0D0
:103BD00003FE01F0B7FD01F05FFFFEBD0E2DFCD12D
:103BE000002CFAD10DA23B4607CA8DE80700092236
:103BF00069460D48FFF7BEF8012001F039FE01F0DB
:103C0000EBFD01F09FFD01F047FF30780628CFD093
:103C1000FEBD00000800002006000020EEB10000FC
:103C200007FFFCFFFF000000CC0A00202DE9F04F49
:103C3000F04DF14A00242B78117899B0022B12D064
:103C4000EE4B2C7010F0FF001970904610704FF082
:103C500001054FF0EE064FF0B1074FF0FF094FF0AE
:103C6000FC0A0AD045E0814203D001F06BFD01F06F
:103C700013FF2C7019B0BDE8F08FDFF884B3DBF8C8
:103C80000000A0F54071E739F4D1EA20FFF7F2F81F
:103C90003220FDF7C1FCF320FFF7ECF83220FDF7EE
:103CA000BBFC0120FFF7E6F83220FDF7B5FC8DF8EC
:103CB00000608DF8017020208DF804408DF802001E
:103CC0008DF805408DF808A08DF806508DF8099004
:103CD0008DF803408DF807908DF80A904FF6FF732A
:103CE0000B226946C748FFF745F8C7480168CBF87B
:103CF000001098F80000C34602283DD1C3A20DF180
:103D0000100807CA88E807004FF6FF730C2204A9C1
:103D1000BC48FFF72FF88DF800608DF80170102077
:103D20008DF8020002204FF078088DF804008DF81D
:103D300008808DF805408DF809808DF80CA08DF86D
:103D400006508DF80A808DF80D908DF803408DF89F
:103D500007808DF80B908DF80E904FF6FF730F22B1
:103D60006946A848FFF706F8AB4A002041461154BF
:103D7000401CC0B20428FAD39BF8000003280AD1E3
:103D8000A6A04FF6FF7307C88DE807000B2269460F
:103D90009C48FEF7EFFF9848007804287DD1002268
:103DA0008DF8006004218DF8017012208DF8041048
:103DB0008DF802008DF805209B4C8DF806504FF0D1
:103DC000030B8DF803208DF807208DF808B094F8C8
:103DD00045106425B1FBF5F327265E4301EB860C05
:103DE0000CF0FF060A21B6FBF1F77E4206EB8608CF
:103DF000302606EB4808C44410468DF80BC030331B
:103E00008DF80C008DF809308DF80DB030378DF835
:103E10000E000F238DF80A708DF80F3094F847705C
:103E20004FF0270CB7FBF5F303FB0CFC07EB8C0CF6
:103E30000CF0FF07B7FBF1F7C7F1000808EB8808A3
:103E400006EB4808C4448DF812C030338DF81030AA
:103E500030378DF811704FF02E0B8DF813B094F8A9
:103E600048704FF0270CB7FBF5F303FB0CFC07EB96
:103E70008C0C0CF0FF07B7FBF1F7C7F1000808EB5B
:103E8000880806EB4808C44430338DF816C08DF816
:103E9000143030378DF8157000E09AE08DF817B0C7
:103EA00094F849704FF0270CB7FBF5F303FB0CFCBB
:103EB00007EB8C0C0CF0FF07B7FBF1F7C7F100081C
:103EC00008EB880806EB4808C4448DF81AC0303364
:103ED0008DF8183030378DF819708DF81BB094F8C4
:103EE0004A70B7FBF5F327255D4307EB8505EFB275
:103EF000B7FBF1F14F4207EB870706EB4706354466
:103F000030338DF81E508DF81C3030318DF81D1077
:103F100006218DF820108DF81F008DF821006846CD
:103F2000617F06E0A31885185B7F521C85F822305C
:103F3000D2B29142F6D210444FF6FF7800F8229F99
:103F40004D4680F801A080F8029080F80390564614
:103F5000434669462B482632FEF70CFF10208DF8A9
:103F6000030000208DF8040004278DF805708DF8FB
:103F7000060002208DF8070094F846008DF808002E
:103F80008DF809508DF80A608DF80B508DF80C50A3
:103F900043460D2269461B48FEF7ECFE8DF807707C
:103FA00094F84B008DF8080043460D2269461548E9
:103FB000FEF7E0FE05208DF80700217F0A20B1FB07
:103FC000F0F08DF8080043460D2269460D48FEF7D3
:103FD000D1FE094800780E287FF44CAE0FA24FF6B0
:103FE000FF7307CA8DE807000B2269460548FEF7F4
:103FF000C1FE3FE608000020060000200700002068
:1040000014000020CC0A002018000020EEB110009F
:1040100002000420FFFCFFFF7C0A0020EEB111002B
:10402000030001FFFCFFFF00500900202DE9F043D1
:104030000D464349074691B00020087041A0144640
:1040400007C88DE80700302241A103A8FCF79CF8BF
:104050004B4E032F04D0042F61D1022D62D063E0B8
:10406000DFF82081012D43D102208DF8060004EBFA
:10407000C40000EB041006EB80074FF6FF7997F8B9
:1040800044008DF807004B460C2269463E48FEF777
:1040900071FE03208DF80600387C8DF807004B4632
:1040A0000C2269463848FEF765FE05220DF1150120
:1040B000B868FCF791FD05220DF11E01F868FCF7C8
:1040C0008BFDB869FCF7D4FA05220DF12701FCF746
:1040D00083FD7869FCF7CCFA05220CA9FCF77CFD7E
:1040E0004B462D2203A92848FEF744FE88F80040DD
:1040F000022D09D198F8000000EBC00101EB00107F
:1041000006EB800080F84440032D08D198F80000A9
:1041100000EBC00101EB001006EB8000047411B04D
:10412000BDE8F08386F84640042D01D186F84B4067
:10413000052DF4D104EB8400400086F84B00EEE737
:1041400008000020EEB1100003000200FFFCFFFF9A
:10415000EEB1120003000400052D312E31310005AF
:1041600000052D312E3131000600052D312E313163
:10417000000700052D312E3131FFFCFFFF0000004C
:1041800050090020F8000020CC0A00202DE9F84357
:104190000E460746964997484FF0000881F8008080
:1041A0000078144602280ED1012E0CD192493C22EF
:1041B00000200A70235C2BB10D18401CC0B26B703C
:1041C0009042F7D308708D4D032F0AD0DFF830925C
:1041D000042F41D0052F7DD0062F3BD1022E7AD05F
:1041E000C0E0884F042E0AD1204600F0FBFA39784F
:1041F00001EBC10202EB011105EB81018860052E84
:104200000AD1204600F0EEFA397801EBC10202EB48
:10421000011105EB8101C860062E0CD1204600F08B
:10422000E1FAFCF74CFA397801EBC10202EB01111B
:1042300005EB81018861072E0CD1204600F0D2FAEF
:10424000FCF73DFA397801EBC10202EB011105EBF5
:1042500081014861BDE8F883012E06D1204600F0B7
:10426000C1FAFCF745FA85F84500032E03D0062E67
:10427000F0D100206EE046460021CDF800800846CF
:10428000E846225C2E2A05D008F80020401CC0B267
:104290000F28F6D30844401CC7B2404600F0A2FAEB
:1042A000FCF726FA85F84700A946002045462E541B
:1042B000401CC0B20428FAD300203918615C2E29B2
:1042C00004D02954401CC0B20F28F6D33844401CF7
:1042D000C7B201E05BE07EE0684600F083FAFCF7DD
:1042E00007FA89F84800C84600202E54401CC0B286
:1042F0000428FAD300203918615C2E2904D02954EF
:10430000401CC0B20F28F6D33844401CC7B26846E0
:1043100000F068FAFCF7ECF988F8490000202E5408
:10432000401CC0B20428FAD300203918615C2E2941
:1043300004D02954401CC0B20F28F6D3684600F0C0
:1043400051FAFCF7D5F988F84A0083E72A18401C8F
:104350009177C0B2215C0029F8D16877052F18D079
:10436000062FF2D1012EF0D1204600F03BFAFCF7E7
:10437000BFF9286601F06EFB002049462B180A5C45
:10438000401CC0B283F858200628F7D362E7022EFB
:1043900014D0012ED9D1204600F024FAFCF7A8F958
:1043A000686501F057FB002049462B180A5C401C49
:1043B000C0B283F84C200628F7D34BE7002004E076
:1043C0002A18401C82F82B10C0B2215C0029F7D1BA
:1043D00085F82A003EE7002004E02A18401C82F8F5
:1043E0003810C0B2215C0029F7D185F8370031E7D9
:1043F00008000020060000207C0A00205009002050
:1044000008010020F8000020704730B4B0F8031015
:1044100045784CBAB0F805108278C37949BA0D2DA9
:104420002CDD0F2D2AD0B12D28D1012A0ED0272A1C
:1044300024D0142B22D00DDC102B14D0112B1DD125
:1044400000F10802204630BCFFF7A0BE204630BC79
:10445000FFF7ECBB1A2B0BD01B2B0FD1027A204697
:1044600030BCFFF7E3BD427A204630BCFEF7F4BF14
:10447000437A027A204630BCFFF770BB30BC7047ED
:104480002DE9F0410122104F0D468046D6023146FB
:104490003846FDF72CFA0D4C2068C16821F0200148
:1044A000C1604FF6FF732A4641462046FEF762FC84
:1044B000002231463846FDF71AFA2068C16841F0FB
:1044C0002001C160BDE8F081000801408C0A002095
:1044D00038B50B46009204460022802100F036F9E0
:1044E000002804D0606D40F020006065032038BDD6
:1044F0002DE9F041DFF8508014460D4606464FF492
:104500008057002239464046FDF7F1F9032000F0BC
:10451000D7F8C5F3074000F0D3F8C5F3072000F043
:10452000CFF8E8B200F0CCF804E0FF2000F0C8F8C3
:1045300006F8010B641EA4B2F7D239464046BDE826
:10454000F0410122FDF7D3B9000C01402DE9F047FD
:1045500007460E4611F0FF00C0F10001CDB24FEA50
:10456000122402F0FF094FF4807A13D0F0B24042D7
:10457000C0B206EB00080CB3501B80B2040A00F076
:10458000FF092A463146384600F03EF83D4446468B
:1045900057462AE06CB15546641EE4B20CD32A4655
:1045A0003146384600F030F806F5807607F580771A
:1045B000F2E73146384621E04A46FAE7A945F8D9FC
:1045C000A9EB0500C4B22A463146384600F01CF873
:1045D00041467819224611E03A463146284600F015
:1045E00013F805F5807506F58076641EE4B2F3D203
:1045F000B9F1000006D0024631462846BDE8F04732
:1046000000F002B8BDE8F0872DE9F04114460D46F0
:10461000064600F085F8DFF854804FF480570022FA
:1046200039464046FDF763F9022000F049F8C5F32A
:10463000074000F045F8C5F3072000F041F8E8B264
:1046400000F03EF8B4F5807F04D9FF24307800F004
:1046500037F8761C641EA4B2F8D2012239464046CF
:10466000FDF745F9BDE8F04100F040B8000C01400D
:1046700070B5044600F054F800F038F80F4E4FF4CF
:104680008055002229463046FDF731F9202000F000
:1046900017F8C4F3074000F013F8C4F3072000F044
:1046A0000FF8E0B200F00CF8012229463046FDF781
:1046B0001EF9BDE8704000F019B80000000C014080
:1046C0000EB501238DF808006FF07F40009001AA1D
:1046D00002A90548FDF7C0FD10B1FF208DF80400C8
:1046E0009DF804000EBD00009805002070B50B4D2C
:1046F0004FF48054002221462846FDF7F8F80520A3
:10470000FFF7DEFFFF20FFF7DBFFC007FAD12146EE
:104710002846BDE870400122FDF7E9B8000C0140D1
:1047200070B5094D4FF48054002221462846FDF70C
:10473000DEF80620FFF7C4FF21462846BDE870409A
:104740000122FDF7D4B80000000C01402DE9F04132
:104750001D4617460E460446DDF8188035E0681CF5
:1047600033D02DB1FDF7C8F8A0EB0800A8422CD338
:104770002068416821F0E00141606068B0F5827F07
:104780000BD1A068B0F5004F02D0B0F5806F04D116
:104790002068016821F040010160A06AB0F5005F67
:1047A0000AD1206801684DF6FF721140016020684F
:1047B000016841F400510160012084F8510000209B
:1047C00084F850000320BDE8F0812068806836EA54
:1047D000000004D00020B842C1D10020F3E701203E
:1047E000F9E770472DE9F84F06464FF000090078C9
:1047F000CA46C846202800D1761C0024305D58B136
:10480000A0F130010A2903D32E2801D02D2803D18D
:10481000641CE4B20A2CF1D3002504E0705D2E285C
:1048200003D06D1CEDB2A542F8D30027DFF89CB091
:1048300010E0F05D2D2813D03038FBF719FF009001
:1048400059465046FBF71CFD0099FBF7C1FC824618
:104850007F1CFFB2AF42ECD37F1CFDB22F4613E0AA
:104860004FF00109F4E7705D30380A280ED2FBF7EB
:10487000FFFE009059464046FBF702FD0099FBF70A
:10488000A7FC6D1C8046EDB2A542ECD30025104E6E
:10489000DFF840B0E41B0BE04046FBF775FF324603
:1048A0005B46FBF704FEFBF782FF6D1C8046EDB212
:1048B000AC42F1DC41465046FBF78AFCB9F1000FEF
:1048C00001D080F00040BDE8F88F000000002041DA
:1048D0009A9999999999B93F10B5FDF713F8BDE8E0
:1048E0001040FDF7C6BD30B595B001210804CDE9F3
:1048F00000100025029502240491CDE907404FF4F1
:10490000E01009906846FDF79BFA00B1FEE70AA99E
:104910000F2081E831004FF48060CDE90D050221C0
:104920000AA8FDF787F900B1FEE74FF400401190A7
:104930000F940FA8FDF708F900B1FEE7FDF724FA80
:104940004FF47A71B0FBF1F0FDF77FFD0420FDF725
:104950006FFD00221146501EFDF75AF815B030BD0C
:104960000D48016841F00101016041680B4A1140A6
:10497000416001680A4A11400160016821F4802108
:104980000160416821F4FE0141604FF41F01816024
:104990000449C00308607047001002400000FFF89F
:1049A000FFFFF6FE08ED00E010B50448FDF702FF3A
:1049B000BDE810400148FDF747BE0000E40C0020B0
:1049C000F0B502681C4B1D4D1D4E1E4F1E4C4FF086
:1049D000804C984209D0A04207D0604505D0A8423B
:1049E00003D0B04201D0B84204D122F0700E4A6820
:1049F00042EA0E02984209D0A04207D0604505D095
:104A0000A84203D0B04201D0B84203D122F440758D
:104A1000CA682A4322F080054A692A4302608A68EC
:104A2000C2620A688262984201D0A04201D109693B
:104A3000016301214161F0BD002C014000040040F0
:104A400000080040000C00400034014010B58468AC
:104A500042EA032224F47F440A432243826010BDC9
:104A6000826822F070020A4342F0070181607047B9
:104A700010B5036A046A24F001040462846924F016
:104A8000F00444EA021423F00A020A438461026239
:104A900010BD10B5036A23F0100303628369046A32
:104AA00023F4704343EA023224F0A00343EA0111E5
:104AB0008261016210BD10B5406A0021C185C184C8
:104AC000FDF715FF10BD70B5446A2068406994F881
:104AD0003910C0F3C0100025212904D118B1E58494
:104AE000204600F046F82068406994F83A10C0F378
:104AF0008010222904D118B1E585204600F02BF85A
:104B0000E06B40F01000E0632046FDF7F0FE70BD62
:104B100010B50146406A09680968890613D4002166
:104B2000C1850168CA6822F48072CA6001684A6956
:104B300022F001024A6101684A6922F040024A619A
:104B4000202180F83A10FEF713F910BD10B5406A25
:104B5000FEF70FF910BD0168CA6822F49072CA60AE
:104B600001684A6922F001024A61202180F83A1066
:104B700070470168CA6822F0C002CA60202180F82C
:104B80003910704710B590F83A10222901D0022050
:104B900010BD8168B1F5805F11D0016900290168FD
:104BA0001FD0496801F07F03816A4A1C82620B7042
:104BB000C18D491E0904090CC18518D02BE002697A
:104BC000816A002A0268526805D0D2B20A80816ADE
:104BD000491C8162ECE7C2F308020A80816A891CE1
:104BE000F7E74A68816A4B1C83620A70E0E7016854
:104BF000CA6822F02002CA600168CA6822F4807282
:104C0000CA6001684A6922F001024A61202180F8E5
:104C10003A10FEF7ADF8002010BD00002DE9F0417C
:104C2000554CA8B020680068C043C0067BD408215A
:104C30005248FFF725FC206801684068269020460E
:104C4000FDF729FE06214D48FBF770FF4B4D4C4AFE
:104C5000C1B22B7892F84560000AB34254D16A7809
:104C6000032A51D1AA7982424ED1E87988424BD1A8
:104C700098216846FBF7A1FA8DF8006003208DF8B3
:104C8000010068794FF4807146008DF802606888F1
:104C900040BA884200D90846802E00D9802639497A
:104CA0006F4601EB40013246F81CFBF76DFAF61C2B
:104CB000F5B229466846FBF739FF010A795579199B
:104CC00001224870DFF8C080AD1CD702EEB2394631
:104CD0004046FCF70CFE2068C16821F02001C1604D
:104CE000002505E096216846FFF7CAFB6D1CEDB272
:104CF000B542F7D3002239464046FCF7F8FD20685C
:104D0000C16841F02001C160FF2208211B48FBF768
:104D10004DFA082219491848FDF7DEFF2068C168DE
:104D200041F01001C160194800680168184CC9437E
:104D3000C9064FF001050ED4016841680091016871
:104D400040681248FDF7A7FD124800684068C0F1AE
:104D50003C00607025701048006802680F4991435C
:104D600006D10168406800900B48FDF794FDE5719D
:104D700028B0BDE8F08100008C0A00202303002049
:104D800050090020C406002000080140CC0A002081
:104D900004000020D40B00200C0B00201000001099
:104DA0002DE9F041044600680169E26821F44051B0
:104DB000114301612169A0680843616908432168C2
:104DC000CA6841F20C639A430243CA602068416991
:104DD000A26921F44071114341614C492068642566
:104DE000322688423CD1FCF7E5FF00EBC00101EB25
:104DF000001061688900B0FBF1F7FCF7DBFF00EB06
:104E0000C00101EB00106168B0468900B0FBF1F011
:104E1000B0FBF5F06FF01801484307EB800106EB9B
:104E20000110B0FBF5F000F0F006FCF7C3FF00EB5B
:104E3000C00101EB001061688900B0FBF1F0B0FB2C
:104E4000F5F006EB0016FCF7B5FF00EBC00101EB37
:104E5000001061688900B0FBF1F7FCF7ABFF3BE0A5
:104E6000FCF798FF00EBC00101EB001061688900BE
:104E7000B0FBF1F7FCF78EFF00EBC00101EB001077
:104E80006168B0468900B0FBF1F0B0FBF5F06FF05F
:104E90001801484307EB800106EB0110B0FBF5F069
:104EA00000F0F006FCF776FF00EBC00101EB00100C
:104EB00061688900B0FBF1F0B0FBF5F006EB00167D
:104EC000FCF768FF00EBC00101EB0010616889008E
:104ED000B0FBF1F7FCF75EFF00EBC00101EB001047
:104EE00061688900B0FBF1F0B0FBF5F06FF01801DC
:104EF000484307EB800108EB0110B0FBF5F0216897
:104F000000F00F0030448860BDE8F08100380140B7
:104F100090F83910212901D0022070478168B1F53D
:104F2000805F016A0BD04A1C0262026809785160F6
:104F3000C18C491E0904090CC1840ED017E00988F0
:104F40000268C1F30801516001690029016A02D0B9
:104F5000491C0162ECE7891CFBE70168CA6822F082
:104F60008002CA600068C16841F04001C160002051
:104F700070472DE9F041984617460E460446069DB7
:104F80001DE0681C1BD02DB1FCF7B6FCA0EB08009F
:104F9000A84214D92068C16821F4D071C16020688A
:104FA000416921F001014161202084F8390084F831
:104FB0003A00002084F838000320BDE8F081206822
:104FC000006836EA000004D00020B842D9D00020A2
:104FD000F3E70120F9E7000010B50448FFF71EFED3
:104FE000BDE810400148FDF783BC00008C0A00209A
:104FF00010B50448FFF712FEBDE810400148FDF768
:1050000077BC0000CC0A0020FEE7FEE702E008C8FB
:10501000121F08C1002AFAD170477047002001E032
:1050200001C1121F002AFBD17047000010B50024F7
:10503000FE20FDF71FFF0A20FCF7EEFA641CE4B225
:10504000052CF5D301490020487210BD0400002052
:1050500070B5164D164E00243220FCF7DDFA287F7D
:10506000FBF720FB00223346FBF721FAFBF773FB2B
:1050700000F00F00E030C0B2FDF7FCFE3220FCF77C
:10508000CBFAF220FDF7F6FE3220FCF7C5FA00203D
:10509000FDF7F0FE3220FCF7BFFA641CE4B2052CE9
:1050A000DAD304490120487270BD00005009002085
:1050B0000000F83F04000020B94C8EB0012280218E
:1050C0002046FCF714FC012211022046FCF70FFCDD
:1050D000012251022046FCF70AFCB24D01221021A8
:1050E0002846FCF704FC012220212846FCF7FFFBA0
:1050F000012240212846FCF7FAFB012240212046EC
:10510000FCF7F5FB012220212046FCF7F0FB0122F1
:1051100080212846FCF7EBFB01221103A248FCF793
:10512000E6FB012211462846FCF7E1FB01220221A1
:105130002846FCF7DCFB002400F004FB9B48015DE3
:10514000382900D00824641CE4B2062CF7D306D01A
:10515000002000F08DFB00F03FFB00F0F3FA00228E
:105160004FF400619248FCF7C2FB924C2068C16882
:1051700041F02001C1609048FBF7BCFD03228F493C
:105180008D48FBF775FF8E48FDF7D8F900B1FEE7B3
:105190008A493C223C398B48FDF79EFD00B1FEE771
:1051A000082289498348FDF797FD00B1FEE783494E
:1051B0003C2278398548FDF78FFD00B1FEE7DFF826
:1051C0000482D8F80000C16841F01001C160206875
:1051D000C16841F01001C1607C4E3068C16841F087
:1051E0001001C160754D7A4C783D4FF001094FF6C2
:1051F000FF7A4FF47A7B0027E07901280CD02069F0
:10520000B0F5FA7F7EDD6D493C2278396F48FDF7B5
:1052100063FD00285ED0FEE728784F2816D1687815
:105220004B2813D1A8782B2810D1E8784C280DD121
:10523000287941280AD16879442807D1A8794428D7
:1052400004D15E487838C0793A2808D05B493C22BE
:1052500078395E48FDF740FD00285BD0FEE7002569
:1052600018225CA16846FAF78FFF18225FA106A8F2
:10527000FAF78AFF51486A46783806AB411903EBC2
:10528000050C097A8CF8061002EB050C6D1CEDB2CA
:105290008CF807100B2DF1D355465346152206A95D
:1052A0004A48FDF767FD2B46172269464748FDF738
:1052B00061FD8DF806902B46172269464348FDF79D
:1052C00059FD3E49E7713C2278394048FDF704FD1D
:1052D00000B1FEE73068C16841F01001C160EE2006
:1052E0008DF83000B1208DF83100FF21FC208DF8C1
:1052F00034008DF832908DF835108DF833108DF81C
:10530000361000E00CE0534607220CA92D48FDF7AB
:1053100031FD0BE03068C16841F01001C1606BE7FE
:1053200001F022FB5846FCF777F965E72078012861
:1053300012D1224861783C38FFF767F81F4967703F
:1053400027703C223C391F48FDF7C6FCD8F8000006
:10535000C16841F01001C160A07801280BD120691B
:10536000584502D0A079012801D100F0B7FF01F023
:10537000F3FC01F02DFC6079012802D100F0DEF889
:105380006771207A012802D101F024FB277220796D
:105390000128CBD100F020FB02202071C6E70000DD
:1053A000000C014000140140001001405009002091
:1053B000000801408C0A0020F00500203C08002075
:1053C000E40C0020CC0A0020230300200C0B00205A
:1053D00004000020EEB110000E00030000000000E9
:1053E00000000000000000FFFCFFFF0041542B4EB6
:1053F000414D450000000000000000000000000DCD
:105400000A00000003E00921491E89B2FCD2401EB7
:1054100080B2F8D2704700002DE9FF4F92463CA2BF
:10542000DDE90D8B74CA8DE8740000220125642724
:105430001446BE0014E000BF5FEA857C06D195FBF0
:10544000F7FC07FB1C5CBCF1000F10D195FBF6FCD0
:1054500006FB1C5CBCF1000F09D002F26D126D1C42
:105460008542E9DB85074FF01D0903D007E002F50F
:10547000B772F4E7B0FBF7F507FB150525B9B0FBEC
:10548000F6F506FB150008B98DF8029001206D466F
:1054900004E000BF15F800C0401C62448842F9DBFC
:1054A00002EB0A0101200EE0820704D190FBF7F223
:1054B00007FB120262B990FBF6F206FB12023AB148
:1054C00004F26D14401C9842EEDB980703D007E00D
:1054D00004F5B774F6E7B3FBF7F007FB103020B91B
:1054E000B3FBF6F006FB103008B98DF802900120EE
:1054F00002E02A5C401C14444045FADB04EB0B003C
:10550000884203DD401A04B0BDE8F08F0020FAE7BE
:10551000001F1C1F1E1F1E1F1F1E1F1E1F0000001E
:10552000054A10B51118145CCB78CC7013548878E8
:105530004A788A70487010BDC40600207CB500F01F
:1055400089FA3B4C3B4D6178207801EB810100EBFF
:105550004100E278A17802EB820201EB4201C0B285
:10556000C9B2CDE900106179207901EB810100EB2E
:105570004100C3B215F84C0F69786E7901EB8101D7
:1055800000EB4100C2B2E978A87801EB810100EBA1
:105590004100C1B2287906EB860600EB4600C0B296
:1055A000FFF73AFFA9684C3D4FF6FF76884235D2A7
:1055B0006178207801EB810100EB4100E278A1786D
:1055C00002EB820201EB4201C0B2C9B2CDE9001088
:1055D0006179207901EB810100EB4100C3B215F83C
:1055E000580F69786C7901EB810100EB4100C2B280
:1055F000E978A87801EB810100EB4100C1B228797C
:1056000004EB840400EB4400C0B2FFF705FFA96877
:10561000884203D233460B22074903E0064913228E
:1056200033460B3102B00548BDE87040FDF7A2BB20
:105630000801002050090020DA000020CC0A0020D8
:105640007FB54FF460700090012001900320114C51
:10565000039069462046FCF751F80022802120463D
:10566000FCF745F96515002229462046FCF73FF96D
:10567000012229462046FCF73AF98E2000F036F840
:10568000002000F033F8002229462046FCF72FF9CD
:105690007FBD0000001001402DE9F0410024FDF71E
:1056A000C9FB114E00254FF480770022802130463F
:1056B000FCF71DF9640839463046FCF713F9012858
:1056C00001D144F08004012280213046FCF70FF91B
:1056D0006D1C082DE9DB002280213046FCF707F91C
:1056E0002046BDE8F0810000001001402DE9F041A6
:1056F0000546FDF7AFFB124E00244FF480770022E1
:1057000039463046FCF7F3F8002280213046FCF79A
:10571000EEF8E80704D0012239463046FCF7E7F8F6
:105720006D08012280213046FCF7E1F8641C082C4A
:10573000E5DB3046BDE8F04100228021FCF7D7B818
:105740000010014010B52520FCF74CF92620FCF78D
:1057500049F90B20FCF746F90E20FCF743F90F201E
:10576000FCF740F91020FCF73DF91120FCF73AF95D
:105770002820FCF737F91C20FCF734F94FF47A7431
:105780002046FBF749FF4FF4967200211148FEF7BF
:10579000AFFE2046FBF740FF2520FCF72EF9262020
:1057A000FCF72BF90B20FCF728F90E20FCF725F964
:1057B0000F20FCF722F91020FCF71FF91120FCF74D
:1057C0001CF92820FCF719F9BDE810401C20FCF753
:1057D00014B900005009002010B52520FCF702F98B
:1057E0002620FCF7FFF80B20FCF7FCF80E20FCF756
:1057F000F9F80F20FCF7F6F81020FCF7F3F8112069
:10580000FCF7F0F82820FCF7EDF81C20FCF7EAF88C
:105810004FF47A742046FBF7FFFE0020FEF728FFC6
:105820004FF4967200211148FEF790FE2046FBF7D8
:10583000F3FE2520FCF7E1F82620FCF7DEF80B202C
:10584000FCF7DBF80E20FCF7D8F80F20FCF7D5F8B2
:105850001020FCF7D2F81120FCF7CFF82820FCF735
:10586000CCF8BDE810401C20FCF7C7B85009002058
:105870002DE9F04100210646554C012308464FF022
:105880007E5500BF01EBC10202EB011204EB820264
:10589000491CC2E902501074C2E90530C9B282F84D
:1058A00044000329EED34A4F0021183F07F10C02B0
:1058B00047F8215042F82100491CC9B20329F7D307
:1058C0003221217784F84530022184F84610C02126
:1058D00084F84710A82184F8481084F8490084F817
:1058E0004A3084F84B00002038252554401CC0B2B3
:1058F0000628FAD3FFF7A4FE01F04CF840F6B830C2
:10590000FBF78AFE00F0A6F806233248042240F294
:105910006D116EB1012E3ED0022E07D162770120AB
:105920002118401CC0B24D770528F9D3BDE8F0819D
:10593000082684F837600126A719761CF6B287F886
:105940003750092EF8D3002604EB060C875D761C31
:10595000F6B28CF85870062EF6D3216684F82A30F9
:105960000123E6185B1CDBB286F82A50072BF8D31C
:105970000023E718C65C5B1CDBB287F84C60062B83
:10598000F7D36165627701202118401CC0B24D77C2
:105990000528F9D3CAE784F82A300123E6185B1CEE
:1059A000DBB286F82A50072BF8D30023E718C65C31
:1059B0005B1CDBB287F84C60062BF7D3616562771E
:1059C00001202118401CC0B24D770528F9D3ADE75E
:1059D00050090020080100201CB5EE208DF80000C1
:1059E000B1208DF8010001208DF80200FC21FF207C
:1059F0008DF804108DF805008DF803008DF8060071
:105A00004FF6FF73072269460148FDF7B3F91CBD45
:105A1000CC0A00202DE9F04101220C4F56023146FC
:105A20003846FBF764FFBF20FFF760FE0024084DF7
:105A3000FFF732FE2855641C072CF9DB3146384647
:105A4000BDE8F0410022FBF752BF0000001001400A
:105A50001401002010B5FFF7DDFF0E49A1F10C0085
:105A6000CA7802F00F0302F030020370120942708C
:105A70000A7902F00F0302F0100283701209C2705B
:105A8000897901F00F0201F0F001027109094171F9
:105A900010BD0000140100202DE9F04F9FB04FF021
:105AA000EE0A8DF808A04FF0B10B8DF809B0122066
:105AB0008DF80A0001214FF000088DF80C100F201E
:105AC0008DF80D808DF80E008DF80B800721404673
:105AD000FE4C02270DF1080994F8442002EB8206DF
